:10071200EF14602E14604C14606A24036003020715
:10072200A8EB6401700DA80504088002C333D8FC4D
:1007320042A422A8057401088002C333D8FCF452F3
:10074200A422EB6401700DA80504088002C333D80B
:10075200FC42A522A8057401088002C333D8FCF428
:1007620052A522EB6401700DA80504088002C33370
:10077200D8FC42A622A8057401088002C333D8FC23
:10078200F452A622EB6401700DA80504088002C38E
:1007920033D8FC42A722AF05A8077401088002C320
:0707A20033D8FCF452A7223A
:1007A900EF14602E14604C14606A2403600302087D
:1007B9003FEB6401700DA80504088002C333D8FC1F
:1007C900428022A8057401088002C333D8FCF45280
:1007D9008022EB6401700DA80504088002C333D898
:1007E900FC429022A8057401088002C333D8FCF4A6
:1007F900529022EB6401700DA80504088002C333EE
:10080900D8FC42A022A8057401088002C333D8FC91
:10081900F452A022EB6401700DA80504088002C3FC
:1008290033D8FC42B022AF05A8077401088002C37F
:0708390033D8FCF452B02299
:1008CC00EF14601D14604314605324037061A80579
:1008DC007401088002C333D8FCFFF452A4EF4280A9
:1008EC0022A8057401088002C333D8FCFFF4FE5221
:1008FC00A5EF4290EB6401700DA80504088002C3BB
:10090C0033D8FC42BD22EE52BD22A80574010880EA
:10091C0002C333D8FCFFF452A6EF42A022A8057400
:10092C0001088002C333D8FCFFF452A7EF42B02277
:1004FD00E4FEEF14603914605F14700302058E245E
:10050D000360030205B57E007401A805088005C3CC
:10051D0033CE33CED8F9FFAC80ECFBE4FEEF5BA815
:10052D0005088006CEA2E713CE13D8F8FE80797E9B
:10053D00007401A805088005C333CE33CED8F9FF6A
:10054D00AC90ECFBE4FEEF5BA805088006CEA2E7BD
:10055D0013CE13D8F8FE80507E007401A8050880D4
:10056D0005C333CE33CED8F9FFACA0ECFBE4FEEFE0
:10057D005BA805088006CEA2E713CE13D8F8FE803F
:10058D00277E007401A805088005C333CE33CED86D
:10059D00F9FFACB0ECFBE4FEEF5BA805088006CEDE
:0A05AD00A2E713CE13D8F8FEAF0644
:0105B7002221
:100B6A0053050FEF146011146015146019240370F3
:100B7A001B5380F0ED4280225390F0ED42902253B5
:0D0B8A00A0F0ED42A02253B0F0ED42B022E9
:100B3B00EDC454F0FDEF146011146015146019240A
:100B4B0003701B53800FED42802253900FED4290A8
:0F0B5B002253A00FED42A02253B00FED42B02263
:100B9700E4FDFCD3ED9FEC9E5015E4FBFA0BBB0084
:0F0BA700010AEB646E4A70F50DBD00010C80E48D
:010BB600221C
:040AB9008C4F8D5081
:100ABD007D02EDFF3395E0FEC3EF9550E54F648069
:100ACD00F8EE6480985025EF25E0FFEE338F82F528
:100ADD00831204C5FFAEF0D39552E5516480F8EE54
:0E0AED0064809840048E518F520D80C6AF5227
:010AFB0022D8
:0409E2008C538D5451
:1009E60012049AF55685F055E4FDEDFF3395E0FEC9
:1009F600C3EF9554E5536480F8EE6480985025EF74
:100A060025E0FFEE338F82F5831204C5FFAEF0C3F7
:100A16009556E5556480F8EE64809850048E558F9F
:060A2600560D80C6AF561C
:010A2C0022A7
:0C000E000102030405060708090A000BA4
:100AFC008F387B01E4FD1207127B017D01AF3812A8
:100B0C0007127B017D02AF381207127B017D03AF08
:100B1C0038120712E4FB7D04AF381208CCE4FB7DDD
:0F0B2C0005AF381208CCE4FB7D06AF380208CCC9
:02066B008F38C6
:10066D0078397C007D007BFF7A00790E7E007F0C4F
:10067D001204747548FFE4F545AF45EF3395E0FE80
:10068D00C3EF9404EE6480948050777B01E4FDAF5A
:10069D00381207A97B017D01AF381207A97B017DB7
:1006AD0002AF381207A97B017D03AF381207A9E409
:1006BD00FBAD45AF381207A9E4F546AF46EF3395CC
:1006CD00E0FEC3EF9403EE648094805027E546244A
:1006DD0004FDAF381204FD8F47EF3395E04F7010D6
:1006ED00E54575F003A424392546F8E6F548800460
:1006FD00054680C7AF47EF3395E04F6005054502CE
:04070D000686AF4865
:0107110022C5
:10093C00011E00010900012100012001011B000121
:10094C001700012300011D00011900012200080BF2
:10095C00010101010101010108300000000000004B
:10096C0000000B2500000000000000000000000447
:0B097C001300000000011A00011C0025
:03000300020006F2
:04000600751C003233
:03001B00020BD7FE
:090BD700758D4B758BFD051C3278
:03000B00020BE005
:090BE000758C4B758AFD051A3273
:0E0BC9007F0112066B8F0A74252FF876012229
:10099400E4F51FC3E51F9408748094805019AD1FBB
:1009A4007F031204FD740B251FF8A6077F017E0048
:1009B400120B97051F80DCE4F51FC3E51F94087430
:1009C4008094805018740B251FF8E6FF3395E04F90
:0E09D40070077430251FF87601051F80DD22A4
:10001E0075FFDE75FFAD7F01120AFCE4FDFF120ACB
:10002E002D7D01E4FF120A2DE4F518FBAD18FF1229
:10003E000BB77B01AD22E4FF120BB775A70075B0AD
:10004E007F7B017D077F031207127589014389109B
:10005E00758D4B758BFD758C4B758AFDD28CD28E42
:10006E00D2A9D2AF43A801438801120994E4F51F27
:10007E00C3E51F94087480948050187430251FF8BF
:10008E00E6FF3395E0FEEF64014E7003750801053F
:10009E001F80DDE50860D3120994AF30EF3395E091
:1000AE00FEEF64014E600DAF25EF3395E0FEEF6479
:1000BE00014E7017AF18EF3395E04F700B751B01A3
:1000CE00F530F513F5258003751301AF33EF339536
:1000DE00E0FEEF64014E601AAF34EF3395E0FEEFB1
:1000EE0064014E600DAF26EF3395E0FEEF64014ED6
:1000FE00705AAF18EF3395E0FEEF64014E704AAFC1
:10010E0026EF3395E0FEEF64014E7007751B01F587
:10011E00268031E51D600CE5346008751B01E4F5A1
:10012E00348021E523600CE5336008751B01E4F58E
:10013E00338011E523700DE51D7009751B01F52641
:10014E00F533F534E4F5148003751401AF35EF3350
:10015E0095E0FEEF64014E601AAF36EF3395E0FE88
:10016E00EF64014E600DAF27EF3395E0FEEF6401B3
:10017E004E7054AF18EF3395E0FEEF64024E7044AC
:10018E00AF27EF3395E0FEEF64014E7007751B014C
:10019E00F527802BE51D6009E5366005E4F5368010
:1001AE001BE5236009E5356005E4F535800EE52392
:1001BE00700DE51D7009F527F536F535751B01E453
:1001CE00F5158003751501AF31EF3395E0FEEF6441
:1001DE00014E600DAF28EF3395E0FEEF64014E70D7
:1001EE001BAF18EF3395E0FEEF64034E700B751BDB
:1001FE0001F531F528F5168003751601120BC9E5C8
:10020E001B6017E4FB7D017F021205B8E4F51BD2DB
:10021E00ABF520F523F51D751901E51760117B016E
:10022E007D017F021205B8E4F517752001F519AFAF
:10023E001CEF3395E0FEC3EF9450EE648094804043
:10024E0008751701C2ABE4F51CE519606AAF2FEF14
:10025E003395E0FEEF64014E70157F2C7E01120B7C
:10026E009705227B01AD22E4FF120BB7E4F52FAF09
:10027E0030EF3395E0FEEF64014E701EAF22EF3388
:10028E0095E04F60157F2C7E01120B9715227B0196
:10029E00AD22E4FF120BB7E4F530AF22EF3395E059
:1002AE00FED3EF9404EE64809480400843B080E463
:1002BE00F51C800353B07FE4F51FD3E51F94037440
:1002CE00809480501D7413251FF8E6FF3395E0FED1
:1002DE00EF64014E7005851F248007851824051FC5
:1002EE0080D8E5206022C3E5246480F8E518648098
:1002FE009850057523018010D3E5246480F8E51825
:10030E006480984003751D01E523603EAF1AEF33FC
:10031E0095E0FEC3EF9414EE64809480402CE4FBD1
:10032E00FD7F021205B8AF09EF3395E0FEC3EF94DF
:10033E0003EE64809480400D0518E4FBAD18FF12A7
:10034E000BB7E4F5090509E4F51AE51D7003020083
:10035E00A1AF1AEF3395E0FEC3EF9414EE648094D0
:10036E008050030200A17B01E4FD7F021205B8AFAD
:10037E0021EF3395E0FEC3EF9403EE64809480404A
:10038E000D1518E4FBAD18FF120BB7E4F52105218E
:06039E00E4F51A0200A1C3
:100A2D008F38ED7B01701CFD1207127B017D01AF2C
:100A3D00381207127B017D02AF381207127B017D40
:100A4D0003801D7D04AF381207127B017D05AF3881
:100A5D001207127B017D06AF381207127B017D074D
:060A6D00AF38120712224F
:100BB7008F388D39EB7003020B6AAD39AF38120BE2
:020BC7003B22CF
:0C098700014E00014D03044903060C0959
:100A73008F57ED7B01701CFD1207127B017D01AFC7
:100A8300571207127B017D02AF571207127B017DBC
:100A930003801D7D04AF571207127B017D05AF57FD
:100AA3001207127B017D06AF571207127B017D07E8
:060AB300AF5712071222EA
:1005B8008F388B39ED7057E539702DF54EAF4EEF0A
:1005C8003395E0FED3EF9403EE64809480400302F9
:1005D800066A74492FF8E6FDAF38120B6A7F647E0D
:1005E80000120B97054E80D5754D03AF4DEF33952F
:1005F800E0C364809480406A74492FF8E6FDAF3800
:10060800120B6A7F647E00120B97154D80DDE53969
:10061800702AF54EAF4EEF3395E0FED3EF9403EE1C
:1006280064809480503C74492FF8E6FDAF38120B73
:100638003B7FC87E00120B97054E80D8754D03AFDF
:100648004DEF3395E0C364809480401674492FF8C9
:10065800E6FDAF38120B3B7FC87E00120B97154D95
:0306680080DD2210
:03000000020840B3
:0C084000787FE4F6D8FD75815702088728
:1003A400E709F608DFFA8046E709F208DFFA803E3B
:1003B40088828C83E709F0A3DFFA8032E309F60828
:1003C400DFFA8078E309F208DFFA807088828C8390
:1003D400E309F0A3DFFA806489828A83E0A3F60844
:1003E400DFFA805889828A83E0A3F208DFFA804C1E
:1003F40080D280FA80C680D4806980F280338010F5
:1004040080A680EA809A80A880DA80E280CA80335D
:1004140089828A83ECFAE493A3C8C582C8CCC583D5
:10042400CCF0A3C8C582C8CCC583CCDFE9DEE780A5
:100434000D89828A83E493A3F608DFF9ECFAA9F024
:10044400EDFB2289828A83ECFAE0A3C8C582C8CC7A
:10045400C583CCF0A3C8C582C8CCC583CCDFEADE93
:10046400E880DB89828A83E493A3F208DFF980CCF5
:1004740088F0EF60010E4E60C388F0ED2402B404EE
:100484000050B9F582EB2402B4040050AF23234595
:0604940082239003F473C3
:10049A00BB010A89828A83E0F5F0A3E0225006872D
:1004AA00F009E71922BBFE07E3F5F009E3192289EF
:0B04BA00828A83E493F5F07401932222
:1004C500BB0110E58229F582E5833AF583E0F5F075
:1004D500A3E0225009E92582F886F008E622BBFE52
:1004E5000AE92582F8E2F5F008E222E5832AF58398
:0804F500E993F5F0A3E993225D
:10084C0002001EE493A3F8E493A34003F68001F2A4
:10085C0008DFF48029E493A3F85407240CC8C333AD
:10086C00C4540F4420C8834004F456800146F6DF7C
:10087C00E4800B010204081020408090093CE47EC7
:10088C00019360BCA3FF543F30E509541FFEE49371
:10089C00A360010ECF54C025E060A840B8E493A338
:1008AC00FAE493A3F8E493A3C8C582C8CAC583CA63
:1008BC00F0A3C8C582C8CAC583CADFE9DEE780BE1B
:010993000063
:00000001FF
