:1006DB00EF14602E14604C14606A2403600302074D
:1006EB0071EB6401700DA80504088002C333D8FCBC
:1006FB0042A422A8057401088002C333D8FCF4522B
:10070B00A422EB6401700DA80504088002C333D842
:10071B00FC42A522A8057401088002C333D8FCF45F
:10072B0052A522EB6401700DA80504088002C333A7
:10073B00D8FC42A622A8057401088002C333D8FC5A
:10074B00F452A622EB6401700DA80504088002C3C5
:10075B0033D8FC42A722AF05A8077401088002C357
:07076B0033D8FCF452A72271
:10077200EF14602E14604C14606A240360030208B4
:1007820008EB6401700DA80504088002C333D8FC8D
:10079200428022A8057401088002C333D8FCF452B7
:1007A2008022EB6401700DA80504088002C333D8CF
:1007B200FC429022A8057401088002C333D8FCF4DD
:1007C200529022EB6401700DA80504088002C33325
:1007D200D8FC42A022A8057401088002C333D8FCC9
:1007E200F452A022EB6401700DA80504088002C334
:1007F20033D8FC42B022AF05A8077401088002C3B7
:0708020033D8FCF452B022D0
:10089500EF14601D14604314605324037061A805B0
:1008A5007401088002C333D8FCFFF452A4EF4280E0
:1008B50022A8057401088002C333D8FCFFF4FE5258
:1008C500A5EF4290EB6401700DA80504088002C3F2
:1008D50033D8FC42BD22EE52BD22A8057401088022
:1008E50002C333D8FCFFF452A6EF42A022A8057438
:1008F50001088002C333D8FCFFF452A7EF42B022AF
:1004C600E4FEEF14603914605F14700302055724CC
:1004D60003600302057E7E007401A805088005C33B
:1004E60033CE33CED8F9FFAC80ECFBE4FEEF5BA84D
:1004F60005088006CEA2E713CE13D8F8FE80797ED3
:10050600007401A805088005C333CE33CED8F9FFA1
:10051600AC90ECFBE4FEEF5BA805088006CEA2E7F4
:1005260013CE13D8F8FE80507E007401A80508800B
:1005360005C333CE33CED8F9FFACA0ECFBE4FEEF17
:100546005BA805088006CEA2E713CE13D8F8FE8076
:10055600277E007401A805088005C333CE33CED8A4
:10056600F9FFACB0ECFBE4FEEF5BA805088006CE15
:0A057600A2E713CE13D8F8FEAF067B
:010580002258
:100B3D0053050FEF14601114601514601924037020
:100B4D001B5380F0ED4280225390F0ED42902253E2
:0D0B5D00A0F0ED42A02253B0F0ED42B02216
:100B0E00EDC454F0FDEF1460111460151460192437
:100B1E0003701B53800FED42802253900FED4290D5
:0F0B2E002253A00FED42A02253B00FED42B02290
:100B6A00E4FDFCD3ED9FEC9E5015E4FBFA0BBB00B1
:0F0B7A00010AEB646E4A70F50DBD00010C80E4BA
:010B89002249
:040A8C008C558D56A2
:100A90007D02EDFF3395E0FEC3EF9556E55564808A
:100AA000F8EE6480985025EF25E0FFEE338F82F555
:100AB0008312048EFFAEF0D39558E5576480F8EEAC
:0E0AC00064809840048E578F580D80C6AF5842
:010ACE002205
:0409B5008C598D5A72
:1009B900120463F55C85F05BE4FDEDFF3395E0FE21
:1009C900C3EF955AE5596480F8EE6480985025EF95
:1009D90025E0FFEE338F82F58312048EFFAEF0C35C
:1009E900955CE55B6480F8EE64809850048E5B8FBB
:0609F9005C0D80C6AF5C3E
:0109FF0022D5
:0C000E000102030405060708090A000BA4
:100ACF008F3E7B01E4FD1206DB7B017D01AF3E1201
:100ADF0006DB7B017D02AF3E1206DB7B017D03AFA0
:100AEF003E1206DBE4FB7D04AF3E120895E4FB7D6E
:0F0AFF0005AF3E120895E4FB7D06AF3E02089559
:020634008F3EF7
:10063600783F7C007D007BFF7A00790E7E007F0C80
:1006460012043D754EFFE4F54BAF4BEF3395E0FEDC
:10065600C3EF9404EE6480948050777B01E4FDAF91
:100666003E1207727B017D01AF3E1207727B017D50
:1006760002AF3E1207727B017D03AF3E120772E4A2
:10068600FBAD4BAF3E120772E4F54CAF4CEF339522
:10069600E0FEC3EF9403EE648094805027E54C247B
:1006A60004FDAF3E1204C68F4DEF3395E04F701038
:1006B600E54B75F003A4243F254CF8E6F54E80047F
:1006C600054C80C7AF4DEF3395E04F6005054B02F3
:0406D600064FAF4ECE
:0106DA0022FD
:100905000123000109000126000125010120000144
:100915001C00012900012200011E00012800080B0E
:10092500010101010101010108360000000000007C
:1009350000000B2B00000000000000000000000577
:10094500130000000000041800000000011F000152
:05095500270001210054
:03000300020006F2
:04000600752100322E
:03001B00020BB520
:090BB500758D4B758BFD05213295
:03000B00020BAA3B
:0B0BAA00758C4B758AFD051F05273276
:0E0B9C007F011206348F0A742B2FF876012287
:10096700E4F524C3E5249408748094805019AD24D9
:100977007F031204C6740B2524F8A6077F017E00A7
:10098700120B6A052480DCE4F524C3E5249408747B
:100997008094805018740B2524F8E6FF3395E04FB8
:0E09A700700774362524F87601052480DD22C1
:10001E0075FFDE75FFAD7F01120ACFE4FDFF120AF8
:10002E00007D01E4FF120A00E4F51DFBAD1DFF1279
:10003E000B8A7B01AD28E4FF120B8A75A70075B001
:10004E007F7B017D077F031206DB758901438910D3
:10005E00758D4B758BFD758C4B758AFDD28CD28E42
:10006E00D2A9D2AF43A801438801120967E4F5244F
:10007E00C3E524940874809480501874362524F8AF
:10008E00E6FF3395E0FEEF64014E7003750801053F
:10009E002480DDE50860D3120967AF36EF3395E0B3
:1000AE00FEEF64014E600DAF2BEF3395E0FEEF6473
:1000BE00014E7017AF1DEF3395E04F700B75200199
:1000CE00F536F518F52B8003751801AF39EF33951A
:1000DE00E0FEEF64014E601AAF3AEF3395E0FEEFAB
:1000EE0064014E600DAF2CEF3395E0FEEF64014ED0
:1000FE00703BAF1DEF3395E0FEEF64014E702BE5C4
:10010E0022600CE53A6008752001E4F53A8016E5A8
:10011E0029600CE5396008752001E4F53980067513
:10012E002001E4F52CE4F5198003751901AF3BEFBE
:10013E003395E0FEEF64014E601AAF3CEF3395E06D
:10014E00FEEF64014E600DAF2DEF3395E0FEEF64D0
:10015E00014E7035AF1DEF3395E0FEEF64024E7029
:10016E0025E5226009E53C6005E4F53C8010E529B3
:10017E006009E53B6005E4F53B8003E4F52D752051
:10018E0001E4F51A8003751A01AF37EF3395E0FEDF
:10019E00EF64014E600DAF2EEF3395E0FEEF64017C
:1001AE004E701BAF1DEF3395E0FEEF64034E700BE8
:1001BE00752001F537F52EF51B8003751B01120B0B
:1001CE009CE5206017E4FB7D017F02120581E4F5BA
:1001DE0020D2ABF525F529F522751E01E51C60111F
:1001EE007B017D017F02120581E4F51C752501F569
:1001FE001EAF21EF3395E0FEC3EF9450EE64809472
:10020E00804008751C01C2ABE4F521E51E606AAFA3
:10021E0035EF3395E0FEEF64014E70157F2C7E01B5
:10022E00120B6A05287B01AD28E4FF120B8AE4F558
:10023E0035AF36EF3395E0FEEF64014E701EAF28FA
:10024E00EF3395E04F60157F2C7E01120B6A152857
:10025E007B01AD28E4FF120B8AE4F536AF28EF33AD
:10026E0095E0FED3EF9404EE64809480400843B092
:10027E0080E4F521800353B07FE4F524D3E5249484
:10028E000374809480501D74182524F8E6FF33956E
:10029E00E0FEEF64014E700585242A8007851D2A35
:1002AE00052480D8E5256029C3E52A6480F8E51D7C
:1002BE0064809850057529018017D3E52A6480F86B
:1002CE00E51D64809840057522018005E4F529F549
:1002DE0022E529603EAF1FEF3395E0FEC3EF941485
:1002EE00EE64809480402CE4FBFD7F02120581AF0A
:1002FE0009EF3395E0FEC3EF9403EE6480948040E3
:10030E000D051DE4FBAD1DFF120B8AE4F509050971
:10031E00E4F51FE52270030200A1AF1FEF3395E055
:10032E00FEC3EF9414EE6480948050030200A17B10
:10033E0001E4FD7F02120581AF26EF3395E0FEC387
:10034E00EF9403EE64809480400D151DE4FBAD1D0B
:0F035E00FF120B8AE4F5260526E4F51F0200A125
:100A00008F3EED7B01701CFD1206DB7B017D01AF8B
:100A10003E1206DB7B017D02AF3E1206DB7B017DD1
:100A200003801D7D04AF3E1206DB7B017D05AF3EDA
:100A30001206DB7B017D06AF3E1206DB7B017D07E4
:060A4000AF3E1206DB22AE
:100B8A008F3E8D3FEB7003020B3DAD3FAF3E120B24
:020B9A000E2229
:0C095A00015400015303044F03060C0974
:100A46008F5DED7B01701CFD1206DB7B017D01AF26
:100A56005D1206DB7B017D02AF5D1206DB7B017D4D
:100A660003801D7D04AF5D1206DB7B017D05AF5D56
:100A76001206DB7B017D06AF5D1206DB7B017D077F
:060A8600AF5D1206DB2249
:100581008F3E8B3FED7057E53F702DF554AF54EF23
:100591003395E0FED3EF9403EE6480948040030230
:1005A1000633744F2FF8E6FDAF3E120B3D7F647E9C
:1005B10000120B6A055480D5755303AF53EF339581
:1005C100E0C364809480406A744F2FF8E6FDAF3E2B
:1005D100120B3D7F647E00120B6A155380DDE53FEF
:1005E100702AF554AF54EF3395E0FED3EF9403EE48
:1005F10064809480503C744F2FF8E6FDAF3E120B9F
:100601000E7FC87E00120B6A055480D8755303AF64
:1006110053EF3395E0C3648094804016744F2FF8F4
:10062100E6FDAF3E120B0E7FC87E00120B6A15531A
:0306310080DD2247
:03000000020809EA
:0C080900787FE4F6D8FD75815D02085090
:10036D00E709F608DFFA8046E709F208DFFA803E72
:10037D0088828C83E709F0A3DFFA8032E309F6085F
:10038D00DFFA8078E309F208DFFA807088828C83C7
:10039D00E309F0A3DFFA806489828A83E0A3F6087B
:1003AD00DFFA805889828A83E0A3F208DFFA804C55
:1003BD0080D280FA80C680D4806980F2803380102C
:1003CD0080A680EA809A80A880DA80E280CA803395
:1003DD0089828A83ECFAE493A3C8C582C8CCC5830D
:1003ED00CCF0A3C8C582C8CCC583CCDFE9DEE780DD
:1003FD000D89828A83E493A3F608DFF9ECFAA9F05C
:10040D00EDFB2289828A83ECFAE0A3C8C582C8CCB1
:10041D00C583CCF0A3C8C582C8CCC583CCDFEADECA
:10042D00E880DB89828A83E493A3F208DFF980CC2C
:10043D0088F0EF60010E4E60C388F0ED2402B40425
:10044D000050B9F582EB2402B4040050AF232345CC
:06045D0082239003BD7331
:10046300BB010A89828A83E0F5F0A3E02250068764
:10047300F009E71922BBFE07E3F5F009E319228926
:0B048300828A83E493F5F07401932259
:10048E00BB0110E58229F582E5833AF583E0F5F0AC
:10049E00A3E0225009E92582F886F008E622BBFE89
:1004AE000AE92582F8E2F5F008E222E5832AF583CF
:0804BE00E993F5F0A3E9932294
:1008150002001EE493A3F8E493A34003F68001F2DB
:1008250008DFF48029E493A3F85407240CC8C333E4
:10083500C4540F4420C8834004F456800146F6DFB3
:10084500E4800B0102040810204080900905E47E35
:10085500019360BCA3FF543F30E509541FFEE493A8
:10086500A360010ECF54C025E060A840B8E493A36F
:10087500FAE493A3F8E493A3C8C582C8CAC583CA9A
:10088500F0A3C8C582C8CAC583CADFE9DEE780BE52
:010966000090
:00000001FF
