:10050600EF14602E14604C14606A24036003020525
:100516009CEB6401700DA80504088002C333D8FC67
:1005260042A422A8057401088002C333D8FCF45201
:10053600A422EB6401700DA80504088002C333D819
:10054600FC42A522A8057401088002C333D8FCF436
:1005560052A522EB6401700DA80504088002C3337E
:10056600D8FC42A622A8057401088002C333D8FC31
:10057600F452A622EB6401700DA80504088002C39C
:1005860033D8FC42A722AF05A8077401088002C32E
:0705960033D8FCF452A72248
:10059D00EF14602E14604C14606A2403600302068D
:1005AD0033EB6401700DA80504088002C333D8FC39
:1005BD00428022A8057401088002C333D8FCF4528E
:1005CD008022EB6401700DA80504088002C333D8A6
:1005DD00FC429022A8057401088002C333D8FCF4B4
:1005ED00529022EB6401700DA80504088002C333FC
:1005FD00D8FC42A022A8057401088002C333D8FCA0
:10060D00F452A022EB6401700DA80504088002C30A
:10061D0033D8FC42B022AF05A8077401088002C38D
:07062D0033D8FCF452B022A7
:10075700EF14601D14604314605324037061A805EF
:100767007401088002C333D8FCFFF452A4EF42801F
:1007770022A8057401088002C333D8FCFFF4FE5297
:10078700A5EF4290EB6401700DA80504088002C331
:1007970033D8FC42BD22EE52BD22A8057401088061
:1007A70002C333D8FCFFF452A6EF42A022A8057477
:1007B70001088002C333D8FCFFF452A7EF42B022EE
:1003A400E4FEEF14603914605F1470030204352412
:1003B40003600302045C7E007401A805088005C381
:1003C40033CE33CED8F9FFAC80ECFBE4FEEF5BA870
:1003D40005088006CEA2E713CE13D8F8FE80797EF6
:1003E400007401A805088005C333CE33CED8F9FFC5
:1003F400AC90ECFBE4FEEF5BA805088006CEA2E718
:1004040013CE13D8F8FE80507E007401A80508802E
:1004140005C333CE33CED8F9FFACA0ECFBE4FEEF3A
:100424005BA805088006CEA2E713CE13D8F8FE8099
:10043400277E007401A805088005C333CE33CED8C7
:10044400F9FFACB0ECFBE4FEEF5BA805088006CE38
:0A045400A2E713CE13D8F8FEAF069E
:01045E00227B
:10095F0053050FEF14601114601514601924037000
:10096F001B5380F0ED4280225390F0ED42902253C2
:0D097F00A0F0ED42A02253B0F0ED42B022F6
:10093000EDC454F0FDEF1460111460151460192417
:1009400003701B53800FED42802253900FED4290B5
:0F0950002253A00FED42A02253B00FED42B02270
:10098C00E4FDFCD3ED9FEC9E5015E4FBFA0BBB0091
:0F099C00010AEB646E4A70F50DBD00010C80E49A
:0109AB002229
:0C000E000102030405060708090B000CA2
:1008F1008F4C7B01E4FD1205067B017D01AF4C129B
:1009010005067B017D02AF4C1205067B017D03AF1D
:100911004C120506E4FB7D04AF4C120757E4FB7D46
:0F09210005AF4C120757E4FB7D06AF4C0207579A
:02045F008F35D7
:1004610078367C007D007BFF7A00790E7E007F0C60
:1004710012037E7545FFE4F542AF42EF3395E0FE8E
:10048100C3EF9404EE6480948050777B01E4FDAF68
:100491003512059D7B017D01AF3512059D7B017DE7
:1004A10002AF3512059D7B017D03AF3512059DE439
:1004B100FBAD42AF3512059DE4F543AF43EF3395F4
:1004C100E0FEC3EF9403EE648094805027E543245B
:1004D10004FDAF351203A48F44EF3395E04F701044
:1004E100E54275F003A424362543F8E6F54580047A
:1004F100054380C7AF44EF3395E04F6005054202E5
:04050100047AAF4584
:0105050022D3
:1007C700011E00010900012400011B00011800019E
:1007D7002600011D00080B010101010101010108AB
:1007E7002D0000000000000000052800010203049E
:1007F70005130000000000042000010203011A0095
:03080700012500C8
:03001B000209C90E
:0909C900758D4B758BFD051C3288
:03000B000209BE29
:0B09BE00758C4B758AFD051A0525326B
:10001E00E4F519FBAD19FF1209AC75FFDE75FFADE6
:10002E007F011208F1E4FDFF1208657D01E4FF1265
:10003E00086575A70075B0FF758901438910758D28
:10004E004B758BFD758C4B758AFDD28CD28ED2A9D9
:10005E00D2AF7B01E4FD7F021205067B017D017F9D
:10006E0002120506120817E4F51FC3E51F94087463
:10007E008094805018742D251FF8E6FF3395E0FE0E
:10008E00EF64014E7003750801051F80DDE5086001
:10009E00D3AF2DEF3395E0FEEF64014E7023AF1911
:1000AE00EF3395E04F7017E51D600EE52D600A7574
:1000BE001B01E4F52DF51D8008751B018003E4F589
:1000CE0027AF2EEF3395E0FEEF64014E702BAF1984
:1000DE00EF3395E0FEEF64034E701BE526600EE5F0
:1000EE002E600A751B01E4F52EF526800CE52670B0
:1000FE0008751B018003752703AF32EF3395E0FEC1
:10010E00EF64014E600DAF33EF3395E0FEEF640107
:10011E004E7039AF19EF3395E0FEEF64024E702941
:10012E00E51D600EE533600A751B01E4F533F51D20
:10013E00801AE526600EE532600A751B01E4F53281
:10014E00F5268008751B018003752702AF30EF334B
:10015E0095E0FEEF64014E600DAF31EF3395E0FE9A
:10016E00EF64014E7041AF19EF3395E0FEEF64017D
:10017E004E7031E51D600EE531600A751B01E4F528
:10018E0031F51D8022E526600EE530600A751B01F3
:10019E00E4F530F5268010E526700CE51D70087527
:1001AE001B018003752701120817C3E5276480F829
:1001BE00E51964809850057526018010D3E52764F3
:1001CE0080F8E5196480984008751D0112081780A3
:1001DE0005E4F526F51DE51B600EE4FB7D017F02AF
:1001EE00120634E4F51BD2ABE518600C7B017D01E1
:1001FE007F02120634E4F518AF1CEF3395E0FEC310
:10020E00EF9428EE648094804008751801C2ABE428
:10021E00F51CAF1AEF3395E0FEC3EF941EEE64802B
:10022E0094804030E526602CAF09EF3395E0FEC395
:10023E00EF9403EE64809480400D0519E4FBAD1934
:10024E00FF1209ACE4F5090509E4FBFD7F02120675
:10025E0034E4F51AAF1AEF3395E0FEC3EF941EEEB9
:10026E0064809480500302009BE51D700302009B86
:10027E00AF24EF3395E0FEC3EF9403EE64809480D9
:10028E00400D1519E4FBAD19FF1209ACE4F5240578
:10029E00247B01E4FD7F02120634E4F51A02009B72
:10081700E4F51FC3E51F9408748094805019AD1F39
:100827007F031203A4740B251FF8A6077F017E0020
:1008370012098C051F80DCE4F51FC3E51F940874BB
:100847008094805018740B251FF8E6FF3395E04F0E
:0E0857007007742D251FF87601051F80DD2225
:100865008F4CED7B01701CFD1205067B017D01AFF0
:100875004C1205067B017D02AF4C1205067B017DFE
:1008850003801D7D04AF4C1205067B017D05AF4C31
:100895001205067B017D06AF4C1205067B017D071F
:0608A500AF4C1205062213
:1009AC008F4C8D4DEB700302095FAD4DAF4C1209AE
:0209BC003022E7
:0C080A00014B00014A03044603060C09E0
:1008AB008F4EED7B01701CFD1205067B017D01AFA8
:1008BB004E1205067B017D02AF4E1205067B017DB4
:1008CB0003801D7D04AF4E1205067B017D05AF4EE7
:1008DB001205067B017D06AF4E1205067B017D07D7
:0608EB00AF4E12050622CB
:100634008F4C8B4DED703BE54D701C7446254BF88B
:10064400E6FD12095F054BAF4BEF3395E0FEEF6417
:10065400024E7072F54B227446254AF8E6FDAF4C03
:1006640012095F154AAF4AEF3395E04F7058754A47
:100674000322E54D702AF54BAF4BEF3395E0FED3E3
:10068400EF9403EE64809480503C74462FF8E6FDAA
:10069400AF4C1209307FC87E0012098C054B80D8FC
:1006A400754A03AF4AEF3395E0C3648094804016E3
:1006B40074462FF8E6FDAF4C1209307FC87E001255
:0706C400098C154A80DD22BC
:030000000206CB2A
:0C06CB00787FE4F6D8FD75814E0207121E
:1002AE00E709F608DFFA8046E709F208DFFA803E32
:1002BE0088828C83E709F0A3DFFA8032E309F6081F
:1002CE00DFFA8078E309F208DFFA807088828C8387
:1002DE00E309F0A3DFFA806489828A83E0A3F6083B
:1002EE00DFFA805889828A83E0A3F208DFFA804C15
:1002FE0080D280FA80C680D4806980F280338010EC
:10030E0080A680EA809A80A880DA80E280CA803354
:10031E0089828A83ECFAE493A3C8C582C8CCC583CC
:10032E00CCF0A3C8C582C8CCC583CCDFE9DEE7809C
:10033E000D89828A83E493A3F608DFF9ECFAA9F01B
:10034E00EDFB2289828A83ECFAE0A3C8C582C8CC71
:10035E00C583CCF0A3C8C582C8CCC583CCDFEADE8A
:10036E00E880DB89828A83E493A3F208DFF980CCEC
:10037E0088F0EF60010E4E60C388F0ED2402B404E5
:10038E000050B9F582EB2402B4040050AF2323458C
:06039E0082239002FE73B1
:1006D70002001EE493A3F8E493A34003F68001F21B
:1006E70008DFF48029E493A3F85407240CC8C33324
:1006F700C4540F4420C8834004F456800146F6DFF3
:10070700E4800B01020408102040809007C7E47EB4
:10071700019360BCA3FF543F30E509541FFEE493E7
:10072700A360010ECF54C025E060A840B8E493A3AE
:10073700FAE493A3F8E493A3C8C582C8CAC583CAD9
:10074700F0A3C8C582C8CAC583CADFE9DEE780BE91
:0108160000E1
:00000001FF
