:10059900EF14602E14604C14606A24036003020691
:1005A9002FEB6401700DA80504088002C333D8FC41
:1005B90042A422A8057401088002C333D8FCF4526E
:1005C900A422EB6401700DA80504088002C333D886
:1005D900FC42A522A8057401088002C333D8FCF4A3
:1005E90052A522EB6401700DA80504088002C333EB
:1005F900D8FC42A622A8057401088002C333D8FC9E
:10060900F452A622EB6401700DA80504088002C308
:1006190033D8FC42A722AF05A8077401088002C39A
:0706290033D8FCF452A722B4
:10063000EF14602E14604C14606A240360030206F9
:10064000C6EB6401700DA80504088002C333D8FC12
:10065000428022A8057401088002C333D8FCF452FA
:100660008022EB6401700DA80504088002C333D812
:10067000FC429022A8057401088002C333D8FCF420
:10068000529022EB6401700DA80504088002C33368
:10069000D8FC42A022A8057401088002C333D8FC0C
:1006A000F452A022EB6401700DA80504088002C377
:1006B00033D8FC42B022AF05A8077401088002C3FA
:0706C00033D8FCF452B02214
:10075300EF14601D14604314605324037061A805F3
:100763007401088002C333D8FCFFF452A4EF428023
:1007730022A8057401088002C333D8FCFFF4FE529B
:10078300A5EF4290EB6401700DA80504088002C335
:1007930033D8FC42BD22EE52BD22A8057401088065
:1007A30002C333D8FCFFF452A6EF42A022A805747B
:1007B30001088002C333D8FCFFF452A7EF42B022F2
:10038400E4FEEF14603914605F1470030204152452
:1003940003600302043C7E007401A805088005C3C1
:1003A40033CE33CED8F9FFAC80ECFBE4FEEF5BA890
:1003B40005088006CEA2E713CE13D8F8FE80797E16
:1003C400007401A805088005C333CE33CED8F9FFE5
:1003D400AC90ECFBE4FEEF5BA805088006CEA2E738
:1003E40013CE13D8F8FE80507E007401A80508804F
:1003F40005C333CE33CED8F9FFACA0ECFBE4FEEF5B
:100404005BA805088006CEA2E713CE13D8F8FE80B9
:10041400277E007401A805088005C333CE33CED8E7
:10042400F9FFACB0ECFBE4FEEF5BA805088006CE58
:0A043400A2E713CE13D8F8FEAF06BE
:01043E00229B
:10095B0053050FEF14601114601514601924037004
:10096B001B5380F0ED4280225390F0ED42902253C6
:0D097B00A0F0ED42A02253B0F0ED42B022FA
:10092C00EDC454F0FDEF146011146015146019241B
:10093C0003701B53800FED42802253900FED4290B9
:0F094C002253A00FED42A02253B00FED42B02274
:10098800E4FDFCD3ED9FEC9E5015E4FBFA0BBB0095
:0F099800010AEB646E4A70F50DBD00010C80E49E
:0109A700222D
:0C000E000102030405060708090B000CA2
:1008ED008F4C7B01E4FD1205997B017D01AF4C120C
:1008FD0005997B017D02AF4C1205997B017D03AFFC
:10090D004C120599E4FB7D04AF4C120753E4FB7DBB
:0F091D0005AF4C120753E4FB7D06AF4C020753A6
:0204F2008F3544
:1004F40078367C007D007BFF7A00790E7E007F0CCD
:1005040012035E7545FFE4F542AF42EF3395E0FE1A
:10051400C3EF9404EE6480948050777B01E4FDAFD4
:10052400351206307B017D01AF351206307B017D2B
:1005340002AF351206307B017D03AF35120630E47D
:10054400FBAD42AF35120630E4F543AF43EF3395CC
:10055400E0FEC3EF9403EE648094805027E54324C7
:1005640004FDAF351203848F44EF3395E04F7010D0
:10057400E54275F003A424362543F8E6F5458004E6
:10058400054380C7AF44EF3395E04F600505420251
:04059400050DAF455D
:010598002240
:1007C300011E00010900012400011B0001180001A2
:1007D3002600011D00080B010101010101010108AF
:1007E3002D000000000000000005280001020304A2
:1007F30005130000000000042000010203011A0099
:03080300012500CC
:03001B000209BA1D
:0F09BA00758D4B758BFD051C752600751D003264
:03000B000209C91E
:0B09C900758C4B758AFD051A05253260
:10001E0075FFDE75FFAD7F011208EDE4FDFF1208DE
:10002E00617D01E4FF120861E4F519FBAD19FF12C1
:10003E0009A875A70075B0FF758901438910758DE4
:10004E004B758BFD758C4B758AFDD28CD28ED2A9D9
:10005E00D2AF120813E4F51FC3E51F940874809401
:10006E00805018742D251FF8E6FF3395E0FEEF64DF
:10007E00014E7003750801051F80DDE50860D3AFE2
:10008E002DEF3395E0FEEF64014E701BAF19EF3389
:10009E0095E04F700FE51D6003E4F51D751B01E43F
:1000AE00F52D8003E4F527AF30EF3395E0FEEF64D6
:1000BE00014E600DAF31EF3395E0FEEF64014E70EF
:1000CE0041AF19EF3395E0FEEF64014E7031E51D3F
:1000DE00600EE531600A751B01E4F531F51D8022D5
:1000EE00E526600EE530600A751B01E4F530F52655
:1000FE008010E526700CE51D7008751B01800375D8
:10010E002701AF32EF3395E0FEEF64014E600DAF85
:10011E0033EF3395E0FEEF64014E7036AF19EF33D7
:10012E0095E0FEEF64024E7026E51D600BE5336030
:10013E0007E4F533F51D8012E526600EE532600A00
:10014E00E4F532751B01F5268008751B01800375D9
:10015E002702AF2EEF3395E0FEEF64014E701FAF16
:10016E0019EF3395E0FEEF64034E700FE526600342
:10017E00E4F526751B01E4F52E800375270312089E
:10018E0013C3E5276480F8E5196480985005752639
:10019E00018017D3E5276480F8E51964809840053F
:1001AE00751D018005E4F526F51DE51B6012E4FBC7
:1001BE007D017F0212043FE4F51BF526F51DD2AB3F
:1001CE00E51860107B017D017F0212043FE4F518F3
:1001DE00F526F51DAF1CEF3395E0FEC3EF9428EE28
:1001EE0064809480400C751801C2ABE4F51CF526B2
:1001FE00F51DAF1AEF3395E0FEC3EF9414EE648055
:10020E0094804030E526602CAF09EF3395E0FEC3B5
:10021E00EF9403EE64809480400D0519E4FBAD1954
:10022E00FF1209A8E4F5090509E4FBFD7F0212049B
:10023E003FE4F51AAF1AEF3395E0FEC3EF9414EED8
:10024E00648094805003020089E51D7003020089CA
:10025E00AF24EF3395E0FEC3EF9403EE64809480F9
:10026E00400D1519E4FBAD19FF1209A8E4F524059C
:10027E00247B01E4FD7F0212043FE4F51A0200899B
:10081300E4F51FC3E51F9408748094805019AD1F3D
:100823007F03120384740B251FF8A6077F017E0044
:10083300120988051F80DCE4F51FC3E51F940874C3
:100843008094805018740B251FF8E6FF3395E04F12
:0E0853007007742D251FF87601051F80DD2229
:100861008F4CED7B01701CFD1205997B017D01AF61
:100871004C1205997B017D02AF4C1205997B017DDC
:1008810003801D7D04AF4C1205997B017D05AF4CA2
:100891001205997B017D06AF4C1205997B017D07FD
:0608A100AF4C1205992284
:1009A8008F4C8D4DEB700302095BAD4DAF4C1209B6
:0209B8002C22EF
:0C080600014B00014A03044603060C09E4
:1008A7008F4EED7B01701CFD1205997B017D01AF19
:1008B7004E1205997B017D02AF4E1205997B017D92
:1008C70003801D7D04AF4E1205997B017D05AF4E58
:1008D7001205997B017D06AF4E1205997B017D07B5
:0608E700AF4E120599223C
:10043F008F4C8B4DED7057E54D702DF54BAF4BEF4E
:10044F003395E0FED3EF9403EE6480948040030273
:10045F0004F174462FF8E6FDAF4C12095B7F647E02
:10046F0000120988054B80D5754A03AF4AEF3395C3
:10047F00E0C364809480406A74462FF8E6FDAF4C69
:10048F0012095B7F647E00120988154A80DDE54DF5
:10049F00702AF54BAF4BEF3395E0FED3EF9403EE9D
:1004AF0064809480503C74462FF8E6FDAF4C1209DF
:1004BF002C7FC87E00120988054B80D8754A03AF80
:1004CF004AEF3395E0C364809480401674462FF84A
:1004DF00E6FDAF4C12092C7FC87E00120988154A21
:0304EF0080DD228B
:030000000206C72E
:0C06C700787FE4F6D8FD75814E02070E26
:10028E00E709F608DFFA8046E709F208DFFA803E52
:10029E0088828C83E709F0A3DFFA8032E309F6083F
:1002AE00DFFA8078E309F208DFFA807088828C83A7
:1002BE00E309F0A3DFFA806489828A83E0A3F6085B
:1002CE00DFFA805889828A83E0A3F208DFFA804C35
:1002DE0080D280FA80C680D4806980F2803380100C
:1002EE0080A680EA809A80A880DA80E280CA803375
:1002FE0089828A83ECFAE493A3C8C582C8CCC583ED
:10030E00CCF0A3C8C582C8CCC583CCDFE9DEE780BC
:10031E000D89828A83E493A3F608DFF9ECFAA9F03B
:10032E00EDFB2289828A83ECFAE0A3C8C582C8CC91
:10033E00C583CCF0A3C8C582C8CCC583CCDFEADEAA
:10034E00E880DB89828A83E493A3F208DFF980CC0C
:10035E0088F0EF60010E4E60C388F0ED2402B40405
:10036E000050B9F582EB2402B4040050AF232345AC
:06037E0082239002DE73F1
:1006D30002001EE493A3F8E493A34003F68001F21F
:1006E30008DFF48029E493A3F85407240CC8C33328
:1006F300C4540F4420C8834004F456800146F6DFF7
:10070300E4800B01020408102040809007C3E47EBC
:10071300019360BCA3FF543F30E509541FFEE493EB
:10072300A360010ECF54C025E060A840B8E493A3B2
:10073300FAE493A3F8E493A3C8C582C8CAC583CADD
:10074300F0A3C8C582C8CAC583CADFE9DEE780BE95
:0108120000E5
:00000001FF
