:1006D800EF14602E14604C14606A24036003020750
:1006E8006EEB6401700DA80504088002C333D8FCC2
:1006F80042A422A8057401088002C333D8FCF4522E
:10070800A422EB6401700DA80504088002C333D845
:10071800FC42A522A8057401088002C333D8FCF462
:1007280052A522EB6401700DA80504088002C333AA
:10073800D8FC42A622A8057401088002C333D8FC5D
:10074800F452A622EB6401700DA80504088002C3C8
:1007580033D8FC42A722AF05A8077401088002C35A
:0707680033D8FCF452A72274
:10076F00EF14602E14604C14606A240360030208B7
:10077F0005EB6401700DA80504088002C333D8FC93
:10078F00428022A8057401088002C333D8FCF452BA
:10079F008022EB6401700DA80504088002C333D8D2
:1007AF00FC429022A8057401088002C333D8FCF4E0
:1007BF00529022EB6401700DA80504088002C33328
:1007CF00D8FC42A022A8057401088002C333D8FCCC
:1007DF00F452A022EB6401700DA80504088002C337
:1007EF0033D8FC42B022AF05A8077401088002C3BA
:0707FF0033D8FCF452B022D4
:10089200EF14601D14604314605324037061A805B3
:1008A2007401088002C333D8FCFFF452A4EF4280E3
:1008B20022A8057401088002C333D8FCFFF4FE525B
:1008C200A5EF4290EB6401700DA80504088002C3F5
:1008D20033D8FC42BD22EE52BD22A8057401088025
:1008E20002C333D8FCFFF452A6EF42A022A805743B
:1008F20001088002C333D8FCFFF452A7EF42B022B2
:1004C300E4FEEF14603914605F14700302055424D2
:1004D30003600302057B7E007401A805088005C341
:1004E30033CE33CED8F9FFAC80ECFBE4FEEF5BA850
:1004F30005088006CEA2E713CE13D8F8FE80797ED6
:10050300007401A805088005C333CE33CED8F9FFA4
:10051300AC90ECFBE4FEEF5BA805088006CEA2E7F7
:1005230013CE13D8F8FE80507E007401A80508800E
:1005330005C333CE33CED8F9FFACA0ECFBE4FEEF1A
:100543005BA805088006CEA2E713CE13D8F8FE8079
:10055300277E007401A805088005C333CE33CED8A7
:10056300F9FFACB0ECFBE4FEEF5BA805088006CE18
:0A057300A2E713CE13D8F8FEAF067E
:01057D00225B
:100B3A0053050FEF14601114601514601924037023
:100B4A001B5380F0ED4280225390F0ED42902253E5
:0D0B5A00A0F0ED42A02253B0F0ED42B02219
:100B0B00EDC454F0FDEF146011146015146019243A
:100B1B0003701B53800FED42802253900FED4290D8
:0F0B2B002253A00FED42A02253B00FED42B02293
:100B6700E4FDFCD3ED9FEC9E5015E4FBFA0BBB00B4
:0F0B7700010AEB646E4A70F50DBD00010C80E4BD
:010B8600224C
:040A89008C558D56A5
:100A8D007D02EDFF3395E0FEC3EF9556E55564808D
:100A9D00F8EE6480985025EF25E0FFEE338F82F558
:100AAD008312048BFFAEF0D39558E5576480F8EEB2
:0E0ABD0064809840048E578F580D80C6AF5845
:010ACB002208
:0409B2008C598D5A75
:1009B600120460F55C85F05BE4FDEDFF3395E0FE27
:1009C600C3EF955AE5596480F8EE6480985025EF98
:1009D60025E0FFEE338F82F58312048BFFAEF0C362
:1009E600955CE55B6480F8EE64809850048E5B8FBE
:0609F6005C0D80C6AF5C41
:0109FC0022D8
:0C000E000102030405060708090A000BA4
:100ACC008F3E7B01E4FD1206D87B017D01AF3E1207
:100ADC0006D87B017D02AF3E1206D87B017D03AFA9
:100AEC003E1206D8E4FB7D04AF3E120892E4FB7D77
:0F0AFC0005AF3E120892E4FB7D06AF3E02089262
:020631008F3EFA
:10063300783F7C007D007BFF7A00790E7E007F0C83
:1006430012043A754EFFE4F54BAF4BEF3395E0FEE2
:10065300C3EF9404EE6480948050777B01E4FDAF94
:100663003E12076F7B017D01AF3E12076F7B017D59
:1006730002AF3E12076F7B017D03AF3E12076FE4AB
:10068300FBAD4BAF3E12076FE4F54CAF4CEF339528
:10069300E0FEC3EF9403EE648094805027E54C247E
:1006A30004FDAF3E1204C38F4DEF3395E04F70103E
:1006B300E54B75F003A4243F254CF8E6F54E800482
:1006C300054C80C7AF4DEF3395E04F6005054B02F6
:0406D300064CAF4ED4
:0106D7002200
:100902000123000109000126000125010120000147
:100912001C00012900012200011E00012800080B11
:10092200010101010101010108360000000000007F
:1009320000000B2B0000000000000000000000057A
:10094200130000000000041800000000011F000155
:05095200270001210057
:03000300020006F2
:04000600752100322E
:03001B00020BB223
:090BB200758D4B758BFD05213298
:03000B00020BA73E
:0B0BA700758C4B758AFD051F05273279
:0E0B99007F011206318F0A742B2FF87601228D
:10096400E4F524C3E5249408748094805019AD24DC
:100974007F031204C3740B2524F8A6077F017E00AD
:10098400120B67052480DCE4F524C3E52494087481
:100994008094805018740B2524F8E6FF3395E04FBB
:0E09A400700774362524F87601052480DD22C4
:10001E0075FFDE75FFAD7F01120ACCE4FDFF1209FC
:10002E00FD7D01E4FF1209FDE4F51DFBAD1DFF1280
:10003E000B877B01AD28E4FF120B8775A70075B007
:10004E007F7B017D077F031206D8758901438910D6
:10005E00758D4B758BFD758C4B758AFDD28CD28E42
:10006E00D2A9D2AF43A801438801120964E4F52452
:10007E00C3E524940874809480501874362524F8AF
:10008E00E6FF3395E0FEEF64014E7003750801053F
:10009E002480DDE50860D3120964AF36EF3395E0B6
:1000AE00FEEF64014E600DAF2BEF3395E0FEEF6473
:1000BE00014E7017AF1DEF3395E04F700B75200199
:1000CE00F536F518F52B8003751801AF39EF33951A
:1000DE00E0FEEF64014E601AAF3AEF3395E0FEEFAB
:1000EE0064014E600DAF2CEF3395E0FEEF64014ED0
:1000FE00703BAF1DEF3395E0FEEF64014E702BE5C4
:10010E0022600CE53A6008752001E4F53A8016E5A8
:10011E0029600CE5396008752001E4F53980067513
:10012E002001E4F52CE4F5198003751901AF3BEFBE
:10013E003395E0FEEF64014E601AAF3CEF3395E06D
:10014E00FEEF64014E600DAF2DEF3395E0FEEF64D0
:10015E00014E7035AF1DEF3395E0FEEF64024E7029
:10016E0025E5226009E53C6005E4F53C8010E529B3
:10017E006009E53B6005E4F53B8003E4F52D752051
:10018E0001E4F51A8003751A01AF37EF3395E0FEDF
:10019E00EF64014E600DAF2EEF3395E0FEEF64017C
:1001AE004E701BAF1DEF3395E0FEEF64034E700BE8
:1001BE00752001F537F52EF51B8003751B01120B0B
:1001CE0099E5206017E4FB7D017F0212057EE4F5C0
:1001DE0020D2ABF525F529F522751E01E51C60111F
:1001EE007B017D017F0212057EE4F51C752501F56C
:1001FE001EAF21EF3395E0FEC3EF9450EE64809472
:10020E00804008751C01C2ABE4F521E51E6067AFA6
:10021E0035EF3395E0FEEF64014E70157F2C7E01B5
:10022E00120B6705287B01AD28E4FF120B87E4F55E
:10023E0035AF36EF3395E0FEEF64014E701EAF28FA
:10024E00EF3395E04F60157F2C7E01120B6715285A
:10025E007B01AD28E4FF120B87E4F536AF28EF33B0
:10026E0095E0FED3EF9404EE64809480400543B095
:10027E0080800353B07FE4F524D3E5249403748087
:10028E009480501D74182524F8E6FF3395E0FEEF98
:10029E0064014E700585242A8007851D2A05248059
:1002AE00D8E5256029C3E52A6480F8E51D648098A9
:1002BE0050057529018017D3E52A6480F8E51D6481
:1002CE00809840057522018005E4F529F522E5297F
:1002DE00603EAF1FEF3395E0FEC3EF9414EE6480E3
:1002EE009480402CE4FBFD7F0212057EAF09EF33B4
:1002FE0095E0FEC3EF9403EE64809480400D051DDF
:10030E00E4FBAD1DFF120B87E4F5090509E4F51FAB
:10031E00E52270030200A1AF1FEF3395E0FEC3EF9D
:10032E009414EE6480948050030200A17B01E4FDDE
:10033E007F0212057EAF26EF3395E0FEC3EF9403E6
:10034E00EE64809480400D151DE4FBAD1DFF120B75
:0C035E0087E4F5260526E4F51F0200A147
:1009FD008F3EED7B01701CFD1206D87B017D01AF92
:100A0D003E1206D87B017D02AF3E1206D87B017DDA
:100A1D0003801D7D04AF3E1206D87B017D05AF3EE0
:100A2D001206D87B017D06AF3E1206D87B017D07ED
:060A3D00AF3E1206D822B4
:100B87008F3E8D3FEB7003020B3AAD3FAF3E120B2A
:020B97000B222F
:0C095700015400015303044F03060C0977
:100A43008F5DED7B01701CFD1206D87B017D01AF2C
:100A53005D1206D87B017D02AF5D1206D87B017D56
:100A630003801D7D04AF5D1206D87B017D05AF5D5C
:100A73001206D87B017D06AF5D1206D87B017D0788
:060A8300AF5D1206D8224F
:10057E008F3E8B3FED7057E53F702DF554AF54EF26
:10058E003395E0FED3EF9403EE6480948040030233
:10059E000630744F2FF8E6FDAF3E120B3A7F647EA5
:1005AE0000120B67055480D5755303AF53EF339587
:1005BE00E0C364809480406A744F2FF8E6FDAF3E2E
:1005CE00120B3A7F647E00120B67155380DDE53FF8
:1005DE00702AF554AF54EF3395E0FED3EF9403EE4B
:1005EE0064809480503C744F2FF8E6FDAF3E120BA2
:1005FE000B7FC87E00120B67055480D8755303AF6E
:10060E0053EF3395E0C3648094804016744F2FF8F7
:10061E00E6FDAF3E120B0B7FC87E00120B67155323
:03062E0080DD224A
:03000000020806ED
:0C080600787FE4F6D8FD75815D02084D96
:10036A00E709F608DFFA8046E709F208DFFA803E75
:10037A0088828C83E709F0A3DFFA8032E309F60862
:10038A00DFFA8078E309F208DFFA807088828C83CA
:10039A00E309F0A3DFFA806489828A83E0A3F6087E
:1003AA00DFFA805889828A83E0A3F208DFFA804C58
:1003BA0080D280FA80C680D4806980F2803380102F
:1003CA0080A680EA809A80A880DA80E280CA803398
:1003DA0089828A83ECFAE493A3C8C582C8CCC58310
:1003EA00CCF0A3C8C582C8CCC583CCDFE9DEE780E0
:1003FA000D89828A83E493A3F608DFF9ECFAA9F05F
:10040A00EDFB2289828A83ECFAE0A3C8C582C8CCB4
:10041A00C583CCF0A3C8C582C8CCC583CCDFEADECD
:10042A00E880DB89828A83E493A3F208DFF980CC2F
:10043A0088F0EF60010E4E60C388F0ED2402B40428
:10044A000050B9F582EB2402B4040050AF232345CF
:06045A0082239003BA7337
:10046000BB010A89828A83E0F5F0A3E02250068767
:10047000F009E71922BBFE07E3F5F009E319228929
:0B048000828A83E493F5F0740193225C
:10048B00BB0110E58229F582E5833AF583E0F5F0AF
:10049B00A3E0225009E92582F886F008E622BBFE8C
:1004AB000AE92582F8E2F5F008E222E5832AF583D2
:0804BB00E993F5F0A3E9932297
:1008120002001EE493A3F8E493A34003F68001F2DE
:1008220008DFF48029E493A3F85407240CC8C333E7
:10083200C4540F4420C8834004F456800146F6DFB6
:10084200E4800B0102040810204080900902E47E3B
:10085200019360BCA3FF543F30E509541FFEE493AB
:10086200A360010ECF54C025E060A840B8E493A372
:10087200FAE493A3F8E493A3C8C582C8CAC583CA9D
:10088200F0A3C8C582C8CAC583CADFE9DEE780BE55
:010963000093
:00000001FF
