:1004EF00EF14602E14604C14606A2403600302053D
:1004FF0085EB6401700DA80504088002C333D8FC96
:10050F0042A422A8057401088002C333D8FCF45218
:10051F00A422EB6401700DA80504088002C333D830
:10052F00FC42A522A8057401088002C333D8FCF44D
:10053F0052A522EB6401700DA80504088002C33395
:10054F00D8FC42A622A8057401088002C333D8FC48
:10055F00F452A622EB6401700DA80504088002C3B3
:10056F0033D8FC42A722AF05A8077401088002C345
:07057F0033D8FCF452A7225F
:10058600EF14602E14604C14606A240360030206A4
:100596001CEB6401700DA80504088002C333D8FC67
:1005A600428022A8057401088002C333D8FCF452A5
:1005B6008022EB6401700DA80504088002C333D8BD
:1005C600FC429022A8057401088002C333D8FCF4CB
:1005D600529022EB6401700DA80504088002C33313
:1005E600D8FC42A022A8057401088002C333D8FCB7
:1005F600F452A022EB6401700DA80504088002C322
:1006060033D8FC42B022AF05A8077401088002C3A4
:0706160033D8FCF452B022BE
:10072600EF14601D14604314605324037061A80520
:100736007401088002C333D8FCFFF452A4EF428050
:1007460022A8057401088002C333D8FCFFF4FE52C8
:10075600A5EF4290EB6401700DA80504088002C362
:1007660033D8FC42BD22EE52BD22A8057401088092
:1007760002C333D8FCFFF452A6EF42A022A80574A8
:1007860001088002C333D8FCFFF452A7EF42B0221F
:10038D00E4FEEF14603914605F14700302041E2440
:10039D000360030204457E007401A805088005C3AF
:1003AD0033CE33CED8F9FFAC80ECFBE4FEEF5BA887
:1003BD0005088006CEA2E713CE13D8F8FE80797E0D
:1003CD00007401A805088005C333CE33CED8F9FFDC
:1003DD00AC90ECFBE4FEEF5BA805088006CEA2E72F
:1003ED0013CE13D8F8FE80507E007401A805088046
:1003FD0005C333CE33CED8F9FFACA0ECFBE4FEEF52
:10040D005BA805088006CEA2E713CE13D8F8FE80B0
:10041D00277E007401A805088005C333CE33CED8DE
:10042D00F9FFACB0ECFBE4FEEF5BA805088006CE4F
:0A043D00A2E713CE13D8F8FEAF06B5
:010447002292
:1009250053050FEF1460111460151460192403703A
:100935001B5380F0ED4280225390F0ED42902253FC
:0D094500A0F0ED42A02253B0F0ED42B02230
:1008F600EDC454F0FDEF1460111460151460192452
:1009060003701B53800FED42802253900FED4290EF
:0F0916002253A00FED42A02253B00FED42B022AA
:10095200E4FDFCD3ED9FEC9E5015E4FBFA0BBB00CB
:0F096200010AEB646E4A70F50DBD00010C80E4D4
:010971002263
:0C09C1000102030405060708090B000CE6
:1008B7008F497B01E4FD1204EF7B017D01AF4912F3
:1008C70004EF7B017D02AF491204EF7B017D03AF8B
:1008D700491204EFE4FB7D04AF49120726E4FB7DD0
:0F08E70005AF49120726E4FB7D06AF490207263D
:020448008F32F1
:10044A0078337C007D007BFF7A0979C17E007F0CBE
:10045A001203677542FFE4F53FAF3FEF3395E0FEC5
:10046A00C3EF9404EE6480948050777B01E4FDAF7F
:10047A00321205867B017D01AF321205867B017D32
:10048A0002AF321205867B017D03AF32120586E484
:10049A00FBAD3FAF32120586E4F540AF40EF33952E
:1004AA00E0FEC3EF9403EE648094805027E5402475
:1004BA0004FDAF3212038D8F41EF3395E04F701078
:1004CA00E53F75F003A424332540F8E6F54280049D
:1004DA00054080C7AF41EF3395E04F6005053F0205
:0404EA000463AF42B6
:0104EE0022EB
:1007E400011A00011700012300011B00080A01017E
:1007F400010101010101082A0000000000000000BD
:100804000525000102030405120000000000041E77
:0A0814000001020301190001220097
:03000B000209CD1A
:0B09CD00758C4B758AFD051905223260
:10000E00E4F518FBAD18FF1209AF75FFDE75FFADF5
:10001E007F011208B7E4FDFF12082B7D01E4FF12E9
:10002E00082B75A70075B0FF758901758C4B758A05
:10003E00FDD28CD2A9D2AF7B01E4FD7F021204EF78
:10004E007B017D017F021204EF120796E4F51DC3BA
:10005E00E51D9408748094805018742A251DF8E6C6
:10006E00FF3395E0FEEF64014E7003750801051D28
:10007E0080DDE50860D3AF2AEF3395E0FEEF640133
:10008E004E702BAF18EF3395E04F701FE51B600ECF
:10009E00E52B600A751A01E4F52EF51B8010E52399
:1000AE00700CE51B7008751A018003E4F524AF2B64
:1000BE00EF3395E0FEEF64014E702FAF18EF3395DE
:1000CE00E0FEEF64034E701FE523600EE52B600A21
:1000DE00751A01E4F52DF5238010E523700CE51B50
:1000EE007008751A018003752403AF2FEF3395E066
:1000FE00FEEF64014E600DAF30EF3395E0FEEF641E
:10010E00014E7041AF18EF3395E0FEEF64024E7072
:10011E0031E51B600EE52F600A751A01E4F52FF527
:10012E001B8022E523600EE530600A751A01E4F5A6
:10013E0030F5238010E523700CE51B7008751A014D
:10014E008003752402AF2DEF3395E0FEEF64014E70
:10015E00600DAF2EEF3395E0FEEF64014E7041AFB0
:10016E0018EF3395E0FEEF64014E7031E51B600E23
:10017E00E52E600A751A01E4F52EF51B8022E523A3
:10018E00600EE52D600A751A01E4F52DF523801039
:10019E00E523700CE51B7008751A018003752401A8
:1001AE00120796C3E5246480F8E518648098500819
:1001BE001209917523018013D3E5246480F8E518A4
:1001CE00648098400B120972751B01120796800508
:1001DE00E4F523F51BAF19EF3395E0FEC3EF943230
:1001EE00EE648094804011E523600D0518E4FBADAC
:1001FE0018FF1209AFE4F519AF19EF3395E0FEC3FE
:10020E00EF9432EE648094804011E51B600D15185A
:10021E00E4FBAD18FF1209AFE4F519AF22EF3395E9
:10022E00E0FEC3EF941EEE648094804022E51A60D7
:10023E001EE4FB7D017F021206A9051CC3E51C947A
:10024E0002748094804005E4F51CF51AE4F522AFA3
:10025E0022EF3395E0FEC3EF941EEE64809480503F
:10026E0003020080E5177003020080E4FB7D017F2E
:10027E00021206A9E4F522051CE51C6402600302C5
:09028E000080F51CF51A02008045
:10099100AF22EF3395E0FEC3EF941EEE64809480A6
:0E09A100400BE4FBFD7F021206A9E4F52222C2
:10097200AF22EF3395E0FEC3EF941EEE64809480C5
:0F098200400C7B01E4FD7F021206A9E4F522225E
:10079600E4F51DC3E51D9408748094805019AD1DC1
:1007A6007F0312038D740A251DF8A6077F017E00BC
:1007B600120952051D80DCE4F51DC3E51D9408747D
:1007C6008094805018740A251DF8E6FF3395E04F93
:0E07D6007007742A251DF87601051D80DD22AE
:10082B008F49ED7B01701CFD1204EF7B017D01AF45
:10083B00491204EF7B017D02AF491204EF7B017D6E
:10084B0003801D7D04AF491204EF7B017D05AF4989
:10085B001204EF7B017D06AF491204EF7B017D078C
:06086B00AF491204EF2268
:1009AF008F498D4AEB7003020925AD4AAF491208F2
:0209BF00F6221E
:0C081E0001480001470304430603090CD5
:100871008F4BED7B01701CFD1204EF7B017D01AFFD
:100881004B1204EF7B017D02AF4B1204EF7B017D24
:1008910003801D7D04AF4B1204EF7B017D05AF4B3F
:1008A1001204EF7B017D06AF4B1204EF7B017D0744
:0608B100AF4B1204EF2220
:1006A9008F498B4AED7039E54A701C74432548F827
:1006B900E6FD1209250548AF48EF3395E0FEEF64E2
:1006C900034E7058F5482274432547F8E6FDAF49B3
:1006D9001209251547AF47EF3395E04F703E803932
:1006E900E54A701E74432548F8E6FDAF491208F63D
:1006F9000548AF48EF3395E0FEEF64034E701DF5F2
:10070900482274432547F8E6FDAF491208F6154714
:0D071900AF47EF3395E04F700375470322A3
:0300000002061DD8
:0C061D00787FE4F6D8FD75814B0206647E
:10029700E709F608DFFA8046E709F208DFFA803E49
:1002A70088828C83E709F0A3DFFA8032E309F60836
:1002B700DFFA8078E309F208DFFA807088828C839E
:1002C700E309F0A3DFFA806489828A83E0A3F60852
:1002D700DFFA805889828A83E0A3F208DFFA804C2C
:1002E70080D280FA80C680D4806980F28033801003
:1002F70080A680EA809A80A880DA80E280CA80336C
:1003070089828A83ECFAE493A3C8C582C8CCC583E3
:10031700CCF0A3C8C582C8CCC583CCDFE9DEE780B3
:100327000D89828A83E493A3F608DFF9ECFAA9F032
:10033700EDFB2289828A83ECFAE0A3C8C582C8CC88
:10034700C583CCF0A3C8C582C8CCC583CCDFEADEA1
:10035700E880DB89828A83E493A3F208DFF980CC03
:1003670088F0EF60010E4E60C388F0ED2402B404FC
:100377000050B9F582EB2402B4040050AF232345A3
:0603870082239002E773DF
:1006290002000EE493A3F8E493A34003F68001F2D9
:1006390008DFF48029E493A3F85407240CC8C333D2
:10064900C4540F4420C8834004F456800146F6DFA1
:10065900E4800B01020408102040809007E4E47E46
:10066900019360BCA3FF543F30E509541FFEE49396
:10067900A360010ECF54C025E060A840B8E493A35D
:10068900FAE493A3F8E493A3C8C582C8CAC583CA88
:10069900F0A3C8C582C8CAC583CADFE9DEE780BE40
:01082A0000CD
:00000001FF
