:030000000208C92A
:0C08C900787FE4F6D8FD75810702080076
:10080000D293D292D291D290C2902094077FF97E57
:10081000001208D5D293D292D291D290C290209554
:10082000077FA47E001208D5D293D292D291D290A3
:10083000C2902096077FB07E001208D5D293D29244
:10084000D291D290C2912094077F997E001208D550
:10085000D293D292D291D290C2912095077F927E6C
:10086000001208D5D293D292D291D290C291209602
:10087000077F827E001208D5D293D292D291D29075
:10088000C2922094077FF87E001208D5D293D292AC
:10089000D291D290C2922095077F807E001208D517
:1008A000D293D292D291D290C2922096077F907E1C
:1008B000001208D5D293D292D291D290C2932095B1
:0908C000077FC07E001208D5225A
:0608D500E4F5A08FA02253
:00000001FF
