:03000000020CCA25
:0C0CCA00787FE4F6D8FD75811F020D1143
:100B0B00EF14602E14604C14606A24036003020B14
:100B1B00A1EB6401700DA80504088002C333D8FC57
:100B2B0042A422A8057401088002C333D8FCF452F6
:100B3B00A422EB6401700DA80504088002C333D80E
:100B4B00FC42A522A8057401088002C333D8FCF42B
:100B5B0052A522EB6401700DA80504088002C33373
:100B6B00D8FC42A622A8057401088002C333D8FC26
:100B7B00F452A622EB6401700DA80504088002C391
:100B8B0033D8FC42A722AF05A8077401088002C323
:070B9B0033D8FCF452A7223D
:100BA200EF14602E14604C14606A24036003020C7C
:100BB20038EB6401700DA80504088002C333D8FC29
:100BC200428022A8057401088002C333D8FCF45283
:100BD2008022EB6401700DA80504088002C333D89B
:100BE200FC429022A8057401088002C333D8FCF4A9
:100BF200529022EB6401700DA80504088002C333F1
:100C0200D8FC42A022A8057401088002C333D8FC94
:100C1200F452A022EB6401700DA80504088002C3FF
:100C220033D8FC42B022AF05A8077401088002C382
:070C320033D8FCF452B0229C
:100D5600EF14601D14604314605324037061A805EA
:100D66007401088002C333D8FCFFF452A4EF42801A
:100D760022A8057401088002C333D8FCFFF4FE5292
:100D8600A5EF4290EB6401700DA80504088002C32C
:100D960033D8FC42BD22EE52BD22A805740108805C
:100DA60002C333D8FCFFF452A6EF42A022A8057472
:100DB60001088002C333D8FCFFF452A7EF42B022E9
:100DC600EF14601814602314602E24037039A805EC
:100DD6007401088002C333D8FC628022A80574011E
:100DE600088002C333D8FC629022A80574010880EB
:100DF60002C333D8FC62A022AF05A807740108809D
:080E060002C333D8FC62B022E4
:1008F600E4FEEF14603914605F1470030209872464
:100906000360030209AE7E007401A805088005C3D2
:1009160033CE33CED8F9FFAC80ECFBE4FEEF5BA818
:1009260005088006CEA2E713CE13D8F8FE80797E9E
:10093600007401A805088005C333CE33CED8F9FF6D
:10094600AC90ECFBE4FEEF5BA805088006CEA2E7C0
:1009560013CE13D8F8FE80507E007401A8050880D7
:1009660005C333CE33CED8F9FFACA0ECFBE4FEEFE3
:100976005BA805088006CEA2E713CE13D8F8FE8042
:10098600277E007401A805088005C333CE33CED870
:10099600F9FFACB0ECFBE4FEEF5BA805088006CEE1
:0A09A600A2E713CE13D8F8FEAF0647
:0109B0002224
:100E9A00EF14601714602114602B24037033ED647F
:100EAA0001700475A4FF2275A40022ED6401700488
:100EBA0075A5FF2275A50022ED6401700475A6FFD1
:100ECA002275A60022ED6401700475A7FF2275A79A
:020EDA000022F4
:100FEB00EF14600D14600D14600D2403700B8D80D5
:0A0FFB00228D90228DA0228DB022DD
:100FAA00E4FEEF14600E14600F1460102403700E38
:100FBA00AE80800AAE908006AEA08002AEB0AF06C8
:010FCA002204
:100F7D0053050FEF146011146015146019240370DC
:100F8D001B5380F0ED4280225390F0ED429022539E
:0D0F9D00A0F0ED42A02253B0F0ED42B022D2
:100F4E00EDC454F0FDEF14601114601514601924F3
:100F5E0003701B53800FED42802253900FED429091
:0F0F6E002253A00FED42A02253B00FED42B0224C
:100F1B00EF14600F14601214601A24037024E4FDA4
:100F2B00FF800AE4FD7F018004E4FD7F02120E9A2C
:100F3B007DFF800BE4FD7F03120E9A7DFFE4FF1211
:030F4B000FEB2287
:100FCB00E4FDFCD3ED9FEC9E5015E4FBFA0BBB004C
:0F0FDB00010AEB646E4A70F50DBD00010C80E455
:010FEA0022E4
:0C1017000102030405060708090B000C89
:100EDC008F087B01E4FD120B0B7B017D01AF081227
:100EEC000B0B7B017D02AF08120B0B7B017D03AF5B
:100EFC0008120B0BE4FB7D04AF08120D56E4FB7DCE
:0F0F0C0005AF08120D56E4FB7D06AF08020D5627
:020A64008F08F9
:100A660078097C007D007BFF7A1079177E007F0C69
:100A76001208D07518FFE4F515AF15EF3395E0FEB3
:100A8600C3EF9404EE6480948050777B01E4FDAF5D
:100A960008120BA27B017D01AF08120BA27B017D20
:100AA60002AF08120BA27B017D03AF08120BA2E472
:100AB600FBAD15AF08120BA2E4F516AF16EF339592
:100AC600E0FEC3EF9403EE648094805027E516247D
:100AD60004FDAF081208F68F17EF3395E04F70103C
:100AE600E51575F003A424092516F8E6F518800423
:100AF600051680C7AF17EF3395E04F600505150261
:040B06000A7FAF189B
:010B0A0022C8
:100C39007F01120EDC7D017F03120E9AE4FDFF1283
:100C49000E0E7D01E4FF120E0EE4FD7F02120E541A
:100C59007D017F02120E547F01120A648F1FEFF487
:100C69006030EF640B600BEF640C6006E4FBAD1FB2
:100C79008015E51F640B7008051E7B01AD1E8007FA
:100C8900151E7B01AD1EE4FF1210057FE87E0312DD
:100C99000FCBE51F64017010FBFD7F021209B17BC8
:100CA900017D017F021209B1E51F640270A97B0170
:100CB900FD7F021209B1E4FB7D017F021209B180B7
:010CC9009694
:100E0E008F08ED7B01701CFD120B0B7B017D01AF7A
:100E1E0008120B0B7B017D02AF08120B0B7B017DC1
:100E2E0003801D7D04AF08120B0B7B017D05AF08FF
:100E3E00120B0B7B017D06AF08120B0B7B017D079E
:060E4E00AF08120B0B229D
:101005008F088D09EB7003020F7DAD09AF08120F34
:021015004E2269
:0610230004190603090C8C
:100E54008F08ED7B01701CFD120B0B7B017D01AF34
:100E640008120B0B7B017D02AF08120B0B7B017D7B
:100E740003801D7D04AF08120B0B7B017D05AF08B9
:100E8400120B0B7B017D06AF08120B0B7B017D0758
:060E9400AF08120B0B2257
:1009B1008F088B09ED7057E509702DF51DAF1DEFFF
:1009C1003395E0FEC3EF9404EE648094804003020B
:1009D1000A6374192FF8E6FDAF08120F7D7FE87ED8
:1009E10003120FCB051D80D5751D03AF1DEF339588
:1009F100E0C364809480406A74192FF8E6FDAF0863
:100A0100120F7D7FE87E03120FCB151D80DDE509F6
:100A1100702AF51DAF1DEF3395E0FEC3EF9404EE90
:100A210064809480503C74192FF8E6FDAF08120FD2
:100A31004E7FE87E03120FCB051D80D8751D03AFD5
:100A41001DEF3395E0C364809480401674192FF82C
:100A5100E6FDAF08120F4E7FE87E03120FCB151D86
:030A610080DD2213
:100CD600020C39E493A3F8E493A34003F68001F2EF
:100CE60008DFF48029E493A3F85407240CC8C3331F
:100CF600C4540F4420C8834004F456800146F6DFEE
:100D0600E4800B0102040810204080901023E47E4A
:100D1600019360BCA3FF543F30E509541FFEE493E2
:100D2600A360010ECF54C025E060A840B8E493A3A9
:100D3600FAE493A3F8E493A3C8C582C8CAC583CAD4
:100D4600F0A3C8C582C8CAC583CADFE9DEE780BE8C
:0110290000C6
:10080000E709F608DFFA8046E709F208DFFA803EDA
:1008100088828C83E709F0A3DFFA8032E309F608C7
:10082000DFFA8078E309F208DFFA807088828C832F
:10083000E309F0A3DFFA806489828A83E0A3F608E3
:10084000DFFA805889828A83E0A3F208DFFA804CBD
:1008500080D280FA80C680D4806980F28033801094
:1008600080A680EA809A80A880DA80E280CA8033FD
:1008700089828A83ECFAE493A3C8C582C8CCC58375
:10088000CCF0A3C8C582C8CCC583CCDFE9DEE78045
:100890000D89828A83E493A3F608DFF9ECFAA9F0C4
:1008A000EDFB2289828A83ECFAE0A3C8C582C8CC1A
:1008B000C583CCF0A3C8C582C8CCC583CCDFEADE33
:1008C000E880DB89828A83E493A3F208DFF980CC95
:1008D00088F0EF60010E4E60C388F0ED2402B4048E
:1008E0000050B9F582EB2402B4040050AF23234535
:0608F00082239008507302
:00000001FF
