:100C6900EF14602E14604C14606A24036003020CB4
:100C7900FFEB6401700DA80504088002C333D8FC9A
:100C890042A422A8057401088002C333D8FCF45297
:100C9900A422EB6401700DA80504088002C333D8AF
:100CA900FC42A522A8057401088002C333D8FCF4CC
:100CB90052A522EB6401700DA80504088002C33314
:100CC900D8FC42A622A8057401088002C333D8FCC7
:100CD900F452A622EB6401700DA80504088002C332
:100CE90033D8FC42A722AF05A8077401088002C3C4
:070CF90033D8FCF452A722DE
:100D0000EF14602E14604C14606A24036003020D1B
:100D100096EB6401700DA80504088002C333D8FC6B
:100D2000428022A8057401088002C333D8FCF45223
:100D30008022EB6401700DA80504088002C333D83B
:100D4000FC429022A8057401088002C333D8FCF449
:100D5000529022EB6401700DA80504088002C33391
:100D6000D8FC42A022A8057401088002C333D8FC35
:100D7000F452A022EB6401700DA80504088002C3A0
:100D800033D8FC42B022AF05A8077401088002C323
:070D900033D8FCF452B0223D
:100E2300EF14601D14604314605324037061A8051C
:100E33007401088002C333D8FCFFF452A4EF42804C
:100E430022A8057401088002C333D8FCFFF4FE52C4
:100E5300A5EF4290EB6401700DA80504088002C35E
:100E630033D8FC42BD22EE52BD22A805740108808E
:100E730002C333D8FCFFF452A6EF42A022A80574A4
:100E830001088002C333D8FCFFF452A7EF42B0221B
:100B0700E4FEEF14603914605F147003020B98243D
:100B1700036003020BBF7E007401A805088005C3AC
:100B270033CE33CED8F9FFAC80ECFBE4FEEF5BA805
:100B370005088006CEA2E713CE13D8F8FE80797E8B
:100B4700007401A805088005C333CE33CED8F9FF5A
:100B5700AC90ECFBE4FEEF5BA805088006CEA2E7AD
:100B670013CE13D8F8FE80507E007401A8050880C4
:100B770005C333CE33CED8F9FFACA0ECFBE4FEEFD0
:100B87005BA805088006CEA2E713CE13D8F8FE802F
:100B9700277E007401A805088005C333CE33CED85D
:100BA700F9FFACB0ECFBE4FEEF5BA805088006CECE
:0A0BB700A2E713CE13D8F8FEAF0634
:010BC1002211
:100FCA0053050FEF1460111460151460192403708F
:100FDA001B5380F0ED4280225390F0ED4290225351
:0D0FEA00A0F0ED42A02253B0F0ED42B02285
:100F9B00EDC454F0FDEF14601114601514601924A6
:100FAB0003701B53800FED42802253900FED429044
:0F0FBB002253A00FED42A02253B00FED42B022FF
:100FF700E4FDFCD3ED9FEC9E5015E4FBFA0BBB0020
:0F100700010AEB646E4A70F50DBD00010C80E428
:0110160022B7
:0C1029000102030405060708090B000C77
:100F27008F407B01E4FD120C697B017D01AF40120C
:100F37000C697B017D02AF40120C697B017D03AF19
:100F470040120C69E4FB7D04AF40120E23E4FB7DE5
:0F0F570005AF40120E23E4FB7D06AF40020E23D0
:020BC2008F2F73
:100BC40078307C007D007BFF7A1079297E007F0CD1
:100BD400120AE1753FFFE4F53CAF3CEF3395E0FECC
:100BE400C3EF9404EE6480948050777B01E4FDAFFE
:100BF4002F120D007B017D01AF2F120D007B017DB3
:100C040002AF2F120D007B017D03AF2F120D00E404
:100C1400FBAD3CAF2F120D00E4F53DAF3DEF339536
:100C2400E0FEC3EF9403EE648094805027E53D24F6
:100C340004FDAF2F120B078F3EEF3395E04F70107A
:100C4400E53C75F003A42430253DF8E6F53F800427
:100C5400053D80C7AF3EEF3395E04F6005053C028C
:040C64000BDDAF3FB6
:010C68002269
:100F6600012000011900080A010101010101010126
:100F7600082700000000000000000522000102030F
:100F86000405120000000000041B00010203011802
:040F960000011F0037
:03000B00021035AB
:0B103500758C4B758AFD0518051F32F5
:10080000E4F517FBAD17FF12101775FFDE75FFAD8E
:100810007F01120F27E4FDFF120EE17D01E4FF12BC
:100820000EE175A70075B0FF758901758C4B758A4F
:10083000FDD28CD2A9D2AF120E93E4F51AC3E51AF9
:1008400094087480948050187427251AF8E6FF33B2
:1008500095E0FEEF64014E7003750801051A80DD16
:10086000E50860D3AF27EF3395E0FEEF64014E70EB
:100870002BAF17EF3395E04F701FE519600EE52899
:10088000600A121055E4F52BF5198010E520700C64
:10089000E51970081210558003E4F521AF28EF33F5
:1008A00095E0FEEF64014E702FAF17EF3395E0FE39
:1008B000EF64034E701FE520600EE528600A1210F9
:1008C00055E4F52AF5208010E520700CE519700834
:1008D0001210558003752103AF2CEF3395E0FEEF26
:1008E00064014E600DAF2DEF3395E0FEEF64014ED5
:1008F0007047AF17EF3395E0FEEF64024E7037E5B7
:10090000196011E52C600D12104E121055E4F52CF3
:10091000F5198025E5206011E52D600D12104E12AD
:100920001055E4F52DF5208010E520700CE51970C8
:10093000081210558003752102AF2AEF3395E0FEAF
:10094000EF64014E600DAF2BEF3395E0FEEF6401D5
:100950004E7041AF17EF3395E0FEEF64014E7031FA
:10096000E519600EE52B600A121055E4F52BF51918
:100970008022E520600EE52A600A121055E4F52A6F
:10098000F5208010E520700CE519700812105580D4
:1009900003752101120E93C3E5216480F8E5176405
:1009A000809850081210407520018013D3E521640F
:1009B00080F8E517648098400912104775190112F4
:1009C0000E93AF18EF3395E0FEC3EF9432EE6480E0
:1009D00094804011E520600D0517E4FBAD17FF1270
:1009E0001017E4F518AF18EF3395E0FEC3EF94321B
:1009F000EE648094805003020860E51970030208D9
:100A0000601517E4FBAD17FF121017E4F518020884
:010A10006085
:0710400043A00153A0FD22B3
:0710470053A0FE43A00222AA
:07104E0053A0FE53A0FD2298
:0710550043A01053A0DF22AD
:07105C0053A0EF43A0202286
:0710630053A0DF53A0EF22B0
:100E9300E4F51AC3E51A9408748094805019AD1AC6
:100EA3007F03120B07740A251AF8A6077F017E0039
:100EB300120FF7051A80DCE4F51AC3E51A940874D7
:100EC3008094805018740A251AF8E6FF3395E04F92
:0E0ED30070077427251AF87601051A80DD22B3
:100EE1008F40ED7B01701CFD120C697B017D01AF10
:100EF10040120C697B017D02AF40120C697B017DC0
:100F010003801D7D04AF40120C697B017D05AF405C
:100F1100120C697B017D06AF40120C697B017D07D4
:060F2100AF40120C692232
:101017008F408D41EB7003020FCAAD41AF40120FF5
:021027009B220A
:03000000020D9757
:0C0D9700787FE4F6D8FD758141020DDE86
:100A1100E709F608DFFA8046E709F208DFFA803EC7
:100A210088828C83E709F0A3DFFA8032E309F608B4
:100A3100DFFA8078E309F208DFFA807088828C831C
:100A4100E309F0A3DFFA806489828A83E0A3F608D0
:100A5100DFFA805889828A83E0A3F208DFFA804CAA
:100A610080D280FA80C680D4806980F28033801081
:100A710080A680EA809A80A880DA80E280CA8033EA
:100A810089828A83ECFAE493A3C8C582C8CCC58362
:100A9100CCF0A3C8C582C8CCC583CCDFE9DEE78032
:100AA1000D89828A83E493A3F608DFF9ECFAA9F0B1
:100AB100EDFB2289828A83ECFAE0A3C8C582C8CC07
:100AC100C583CCF0A3C8C582C8CCC583CCDFEADE20
:100AD100E880DB89828A83E493A3F208DFF980CC82
:100AE10088F0EF60010E4E60C388F0ED2402B4047B
:100AF1000050B9F582EB2402B4040050AF23234522
:060B01008223900A6173DB
:100DA300020800E493A3F8E493A34003F68001F25E
:100DB30008DFF48029E493A3F85407240CC8C33351
:100DC300C4540F4420C8834004F456800146F6DF20
:100DD300E4800B0102040810204080900F66E47E3B
:100DE300019360BCA3FF543F30E509541FFEE49315
:100DF300A360010ECF54C025E060A840B8E493A3DC
:100E0300FAE493A3F8E493A3C8C582C8CAC583CA06
:100E1300F0A3C8C582C8CAC583CADFE9DEE780BEBE
:010F9A000056
:00000001FF
