:03000000020CB13E
:0C0CB100787FE4F6D8FD758156020CF83F
:100B8300EF14602E14604C14606A24036003020C9B
:100B930019EB6401700DA80504088002C333D8FC67
:100BA30042A422A8057401088002C333D8FCF4527E
:100BB300A422EB6401700DA80504088002C333D896
:100BC300FC42A522A8057401088002C333D8FCF4B3
:100BD30052A522EB6401700DA80504088002C333FB
:100BE300D8FC42A622A8057401088002C333D8FCAE
:100BF300F452A622EB6401700DA80504088002C319
:100C030033D8FC42A722AF05A8077401088002C3AA
:070C130033D8FCF452A722C4
:100C1A00EF14602E14604C14606A24036003020C03
:100C2A00B0EB6401700DA80504088002C333D8FC38
:100C3A00428022A8057401088002C333D8FCF4520A
:100C4A008022EB6401700DA80504088002C333D822
:100C5A00FC429022A8057401088002C333D8FCF430
:100C6A00529022EB6401700DA80504088002C33378
:100C7A00D8FC42A022A8057401088002C333D8FC1C
:100C8A00F452A022EB6401700DA80504088002C387
:100C9A0033D8FC42B022AF05A8077401088002C30A
:070CAA0033D8FCF452B02224
:100D3D00EF14601D14604314605324037061A80503
:100D4D007401088002C333D8FCFFF452A4EF428033
:100D5D0022A8057401088002C333D8FCFFF4FE52AB
:100D6D00A5EF4290EB6401700DA80504088002C345
:100D7D0033D8FC42BD22EE52BD22A8057401088075
:100D8D0002C333D8FCFFF452A6EF42A022A805748B
:100D9D0001088002C333D8FCFFF452A7EF42B02202
:100E6700EF14601814602314602E24037039A8054A
:100E77007401088002C333D8FC628022A80574017C
:100E8700088002C333D8FC629022A8057401088049
:100E970002C333D8FC62A022AF05A80774010880FB
:080EA70002C333D8FC62B02243
:10096E00E4FEEF14603914605F1470030209FF2473
:10097E00036003020A267E007401A805088005C3E1
:10098E0033CE33CED8F9FFAC80ECFBE4FEEF5BA8A0
:10099E0005088006CEA2E713CE13D8F8FE80797E26
:1009AE00007401A805088005C333CE33CED8F9FFF5
:1009BE00AC90ECFBE4FEEF5BA805088006CEA2E748
:1009CE0013CE13D8F8FE80507E007401A80508805F
:1009DE0005C333CE33CED8F9FFACA0ECFBE4FEEF6B
:1009EE005BA805088006CEA2E713CE13D8F8FE80CA
:1009FE00277E007401A805088005C333CE33CED8F8
:100A0E00F9FFACB0ECFBE4FEEF5BA805088006CE68
:0A0A1E00A2E713CE13D8F8FEAF06CE
:010A280022AB
:100F3B00EF14601714602114602B24037033ED64DD
:100F4B0001700475A4FF2275A40022ED64017004E6
:100F5B0075A5FF2275A50022ED6401700475A6FF2F
:100F6B002275A60022ED6401700475A7FF2275A7F8
:020F7B00002252
:10111800EF14600D14600D14600D2403700B8D80A6
:0A112800228D90228DA0228DB022AE
:1010D700E4FEEF14600E14600F1460102403700E0A
:1010E700AE80800AAE908006AEA08002AEB0AF069A
:0110F70022D6
:10105D0053050FEF146011146015146019240370FB
:10106D001B5380F0ED4280225390F0ED42902253BD
:0D107D00A0F0ED42A02253B0F0ED42B022F1
:10102E00EDC454F0FDEF1460111460151460192412
:10103E0003701B53800FED42802253900FED4290B0
:0F104E002253A00FED42A02253B00FED42B0226B
:100FFB00EF14600F14601214601A24037024E4FDC4
:10100B00FF800AE4FD7F018004E4FD7F02120F3BA9
:10101B007DFF800BE4FD7F03120F3B7DFFE4FF128E
:03102B0011182277
:1010F800E4FDFCD3ED9FEC9E5015E4FBFA0BBB001E
:0F110800010AEB646E4A70F50DBD00010C80E426
:0111170022B5
:0411790043A88022E5
:07116B0043A80143880122A3
:0711720043A8044388042296
:10114400758901758C4B758AFDD28CD2A9D2AF22D8
:0C1154000102030405060708090B000C4B
:100F7D008F557B01E4FD120B837B017D01AF551273
:100F8D000B837B017D02AF55120B837B017D03AF7C
:100F9D0055120B83E4FB7D04AF55120D3DE4FB7D33
:0F0FAD0005AF55120D3DE4FB7D06AF55020D3D1E
:020ADC008F3257
:100ADE0078337C007D007BFF7A1179547E007F0C89
:100AEE001208D07542FFE4F53FAF3FEF3395E0FEBD
:100AFE00C3EF9404EE6480948050777B01E4FDAFE5
:100B0E0032120C1A7B017D01AF32120C1A7B017D61
:100B1E0002AF32120C1A7B017D03AF32120C1AE4B3
:100B2E00FBAD3FAF32120C1AE4F540AF40EF3395F8
:100B3E00E0FEC3EF9403EE648094805027E54024DA
:100B4E0004FDAF3212096E8F41EF3395E04F7010F6
:100B5E00E53F75F003A424332540F8E6F542800402
:100B6E00054080C7AF41EF3395E04F6005053F026A
:040B7E000AF7AF4281
:010B82002250
:100FBC000322060004031A010507080901010101B7
:100FCC0001010101082A00000000000000000525B5
:100FDC00000102030405110000000000041E0001C2
:080FEC000203011900011600C7
:03000B000211607F
:0B116000758C4B758AFD0519B28032BA
:100DAD0075FFDE75FFAD7F01120F7D7D017F031293
:100DBD000F3BE4FDFF120EAF7D01E4FF120EAFE419
:100DCD00FD7F02120EF57D017F02120EF5121179D3
:100DDD001211727F03120FFB538EF75389FD538946
:100DED00FEE4F58AF58C43A802121144AF19EF33D6
:100DFD0095E0FEC3EF9432EE6480948040EE7B016B
:0C0E0D007D027F02120A29E4F51980E042
:100E1900E4F51DC3E51D9408748094805019AD1D37
:100E29007F0312096E7409251DF8A6077F017E004C
:100E39001210F8051D80DCE4F51DC3E51D94087446
:100E490080948050187409251DF8E6FF3395E04F0A
:0E0E59007007742A251DF87601051D80DD2224
:10108A00E4FF1208F6600A740129F9E43AFA0F80BB
:10109A00F1ED14C36480F8EF648098500CE54D12AA
:0910AA00090F900001E412092174
:0110B300221A
:1010B4008B438A448945AB46AA47A948120943FF92
:1010C400AEF0AB43AA44A945120943C39FFFE5F020
:0310D4009EFE225B
:100EAF008F55ED7B01701CFD120B837B017D01AF14
:100EBF0055120B837B017D02AF55120B837B017D96
:100ECF0003801D7D04AF55120B837B017D05AF554C
:100EDF00120B837B017D06AF55120B837B017D07C0
:060EEF00AF55120B832237
:101132008F538D54EB700302105DAD54AF531210F8
:021142002E225B
:060FF400044E0603090C87
:100EF5008F55ED7B01701CFD120B837B017D01AFCE
:100F050055120B837B017D02AF55120B837B017D4F
:100F150003801D7D04AF55120B837B017D05AF5505
:100F2500120B837B017D06AF55120B837B017D0779
:060F3500AF55120B8322F0
:100A29008F558B56ED7057E556702DF552AF52EF35
:100A39003395E0FEC3EF9404EE6480948040030292
:100A49000ADB744E2FF8E6FDAF5512105D7FF47E78
:100A5900011210F8055280D5755203AF52EF339544
:100A6900E0C364809480406A744E2FF8E6FDAF5568
:100A790012105D7FF47E011210F8155280DDE556E3
:100A8900702AF552AF52EF3395E0FEC3EF9404EEAE
:100A990064809480503C744E2FF8E6FDAF551210D7
:100AA9002E7FF47E011210F8055280D8755203AFDB
:100AB90052EF3395E0C3648094804016744E2FF84A
:100AC900E6FDAF5512102E7FF47E011210F8155273
:030AD90080DD229B
:100CBD00020DADE493A3F8E493A34003F68001F293
:100CCD0008DFF48029E493A3F85407240CC8C33338
:100CDD00C4540F4420C8834004F456800146F6DF07
:100CED00E4800B0102040810204080900FBCE47ECC
:100CFD00019360BCA3FF543F30E509541FFEE493FC
:100D0D00A360010ECF54C025E060A840B8E493A3C2
:100D1D00FAE493A3F8E493A3C8C582C8CAC583CAED
:100D2D00F0A3C8C582C8CAC583CADFE9DEE780BEA5
:010FFA0000F6
:10080000E709F608DFFA8046E709F208DFFA803EDA
:1008100088828C83E709F0A3DFFA8032E309F608C7
:10082000DFFA8078E309F208DFFA807088828C832F
:10083000E309F0A3DFFA806489828A83E0A3F608E3
:10084000DFFA805889828A83E0A3F208DFFA804CBD
:1008500080D280FA80C680D4806980F28033801094
:1008600080A680EA809A80A880DA80E280CA8033FD
:1008700089828A83ECFAE493A3C8C582C8CCC58375
:10088000CCF0A3C8C582C8CCC583CCDFE9DEE78045
:100890000D89828A83E493A3F608DFF9ECFAA9F0C4
:1008A000EDFB2289828A83ECFAE0A3C8C582C8CC1A
:1008B000C583CCF0A3C8C582C8CCC583CCDFEADE33
:1008C000E880DB89828A83E493A3F208DFF980CC95
:1008D00088F0EF60010E4E60C388F0ED2402B4048E
:1008E0000050B9F582EB2402B4040050AF23234535
:0608F00082239008507302
:1008F600BB010689828A83E0225002E722BBFE0200
:09090600E32289828A83E4932232
:10090F00BB010689828A83F0225002F722BBFE01C7
:02091F00F322C1
:10092100F8BB010DE58229F582E5833AF583E8F00C
:10093100225006E92582C8F622BBFE05E92582C8B8
:02094100F222A0
:10094300BB010A89828A83E0F5F0A3E0225006877F
:10095300F009E71922BBFE07E3F5F009E319228941
:0B096300828A83E493F5F07401932274
:00000001FF
