:060C5E0004080603090C66
:100C2400E4FDFCD3ED9FEC9E5015E4FBFA0BBB00F6
:0F0C3400010AEB646E4A70F50DBD00010C80E4FF
:010C4300228E
:100ADC00E4FD7F02120B6DE4F50D7408250DF8E6AC
:100AEC00FD7F02120BD67FE87E03120C24050DE568
:100AFC000DC3940440E4750C03C3E50C648094802E
:100B0C0040D57408250CF8E6FD7F02120BA77FE890
:090B1C007E03120C24150C80E08C
:1008BB00EF14602D14604A1460672403600302096F
:1008CB004DBB010E7401A805088002C333D8FC424E
:1008DB00A4227401A805088002C333D8FCF452A4E7
:1008EB0022BB010E7401A805088002C333D8FC4259
:1008FB00A5227401A805088002C333D8FCF452A5C5
:10090B0022BB010E7401A805088002C333D8FC4238
:10091B00A6227401A805088002C333D8FCF452A6A2
:10092B0022BB010E7401A805088002C333D8FC4218
:10093B00A722AF057401A807088002C333D8FCF4C3
:03094B0052A7228E
:10094E00EF14602D14604A146067240360030209DB
:10095E00E0BB010E7401A805088002C333D8FC4227
:10096E0080227401A805088002C333D8FCF452809B
:10097E0022BB010E7401A805088002C333D8FC42C5
:10098E0090227401A805088002C333D8FCF452905B
:10099E0022BB010E7401A805088002C333D8FC42A5
:1009AE00A0227401A805088002C333D8FCF452A01B
:1009BE0022BB010E7401A805088002C333D8FC4285
:1009CE00B022AF057401A807088002C333D8FCF427
:0309DE0052B022F2
:100A6D00EF14601D14604214605224037060740111
:100A7D00A805088002C333D8FCFFF452A4EF4280CE
:100A8D00227401A805088002C333D8FCFFF4FE527E
:100A9D00A5EF4290BB010E7401A805088002C33377
:100AAD00D8FC42BD22EE52BD227401A80508800279
:100ABD00C333D8FCFFF452A6EF42A0227401A8055F
:0F0ACD00088002C333D8FCFFF452A7EF42B022D7
:100B2500EF14601814602314602E240370397401C7
:100B3500A805088002C333D8FC6280227401A80589
:100B4500088002C333D8FC6290227401A80508808E
:100B550002C333D8FC62A022AF057401A807088040
:080B650002C333D8FC62B02288
:10080000E4FEEF14603914605F1470030208912451
:100810000360030208B874017E00A805088005C3C0
:1008200033CE33CED8F9FFAC80ECFBE4FEEF5BA80F
:1008300005088006CEA2E713CE13D8F8FE8079749F
:10084000017E00A805088005C333CE33CED8F9FF5A
:10085000AC90ECFBE4FEEF5BA805088006CEA2E7B7
:1008600013CE13D8F8FE805074017E00A8050880CE
:1008700005C333CE33CED8F9FFACA0ECFBE4FEEFDA
:100880005BA805088006CEA2E713CE13D8F8FE8039
:100890002774017E00A805088005C333CE33CED867
:1008A000F9FFACB0ECFBE4FEEF5BA805088006CED8
:0A08B000A2E713CE13D8F8FEAF063E
:0108BA00221B
:100B6D00EF14601514601D1460252403702BBD0156
:100B7D000475A4FF2275A40022BD010475A5FF22F2
:100B8D0075A50022BD010475A6FF2275A60022BD24
:0A0B9D00010475A7FF2275A70022CE
:100C4400EF14600D14600D14600D2403700B8D807F
:0A0C5400228D90228DA0228DB02287
:100C0300E4FEEF14600E14600F1460102403700EE2
:100C1300AE80800AAE908006AEA08002AEB0AF0672
:010C230022AE
:100BD60053050FEF14601114601514601924037087
:100BE6001B5380F0ED4280225390F0ED4290225349
:0D0BF600A0F0ED42A02253B0F0ED42B0227D
:100BA700EDC454F0FDEF146011146015146019249E
:100BB70003701B53800FED42802253900FED42903C
:0F0BC7002253A00FED42A02253B00FED42B022F7
:030000000209E111
:0C09E100787FE4F6D8FD75810D020A282D
:1009ED00020ADCE493A3F8E493A34003F68001F23A
:1009FD0008DFF48029E493A3F85407240CC8C3330B
:100A0D00C4540F4420C8834004F456800146F6DFD9
:100A1D00E4800B0102040810204080900C5EE47EFF
:100A2D00019360BCA3FF543F30E509541FFEE493CE
:100A3D00A360010ECF54C025E060A840B8E493A395
:100A4D00FAE493A3F8E493A3C8C582C8CAC583CAC0
:100A5D00F0A3C8C582C8CAC583CADFE9DEE780BE78
:010C6400008F
:00000001FF
